:100000000C9434000C9451000C9451000C94510049
:100010000C9451000C9451000C9451000C9451001C
:100020000C9451000C94F7030C9451000C940504AB
:100030000C9451000C9451000C9451000C945100FC
:100040000C9464030C9451000C94AE030C94510076
:100050000C9451000C9451000C9451000C945100DC
:100060000C9451000C94510011241FBECFEFD8E026
:10007000DEBFCDBF11E0A0E0B1E0ECEEF6E102C0E2
:1000800005900D92AA33B107D9F727E0AAE3B1E0B2
:1000900001C01D92A533B207E1F70E9448080C94F5
:1000A000740B0C9400003FB7F89480912D07909149
:1000B0002E07A0912F07B091300726B5A89B05C049
:1000C0002F3F19F00196A11DB11D3FBFBA2FA92FD7
:1000D000982F8827BC01CD01620F711D811D911DD4
:1000E00042E0660F771F881F991F4A95D1F7089540
:1000F0008F929F92AF92BF92CF92DF92EF92FF9238
:100100000E9453004B015C0188EEC82E83E0D82E7C
:10011000E12CF12C0E945300681979098A099B0986
:10012000683E734081059105A8F321E0C21AD10809
:10013000E108F10888EE880E83E0981EA11CB11C2E
:10014000C114D104E104F10429F7FF90EF90DF908E
:10015000CF90BF90AF909F908F9008959091EF02B5
:10016000992341F09091E002282F292319F4892B3B
:100170008093E0020895CF92DF92EF92FF928091F8
:10018000DF02282F082E000C330B37FF03C03195F8
:10019000219531099091DE02921710F42093DE022E
:1001A0009091DD029F5F943038F49093DD02FF90D0
:1001B000EF90DF90CF9008951092DD022091DB0246
:1001C0003091DC022F3F320791F38802C0011124E5
:1001D000B0E0A0E04091D7025091D8026091D902DE
:1001E0007091DA026C017D01C094D094E094F09497
:1001F000C416D506E606F706D0F2840F951FA61F93
:10020000B71F8093D7029093D802A093D902B093DE
:10021000DA022F5F3F4F3093DC022093DB02C7CF1F
:100220004091E2025091E3029A0136952795842786
:1002300080FD05C03093E3022093E202089588E038
:10024000282784E83827F6CF0F931F93CF93DF93A7
:10025000182F8093D6021092D502D1E002E380914C
:10026000D502883008F04DC0C091D602C170C0934D
:10027000D4021E3701F5C11141C01092D302809102
:10028000E4028736B9F187E68093E4028091D602D2
:1002900090E0959587958093D602D093D2020093F3
:1002A000B2008091D2028111FCCF8091D5028F5F84
:1002B0008093D502D4CF8C2F90E00E941001CC23E4
:1002C000E1F28091D3028F5F8093D3028530F1F603
:1002D000D093D2020093B2008091D2028111FCCF60
:1002E0008091E402873641F488E38093E40210921F
:1002F000D302CCCF88E3C8CF87E6F7CFD093D30221
:10030000C5CFDF91CF911F910F9108952091C60520
:100310003091C7058091C8059091C9052817390704
:1003200068F08091C8059091C9052091C60530916B
:10033000C70581549D4F821B930B08958091C8057A
:100340009091C9052091C6053091C7050197F3CF5B
:100350002091C6053091C7052F5F3F4F203C92E0AA
:10036000390710F030E020E04091C8055091C905F0
:100370004217530781F48091EB029091EC020196B1
:10038000A9F08091EB029091EC0201969093EC021F
:100390008093EB0208953093C7052093C605E09142
:1003A000C605F091C705EA5FFC4F8083089510925F
:1003B000E0021092A10210929E021092CB021092C3
:1003C000A00210929F020895803C31F48BED0E94B0
:1003D000A8018CED0C94A8018B3DE1F70E94A801C7
:1003E0008DEDF8CFCF92DF92EF92FF920F931F9394
:1003F0009091EF02992309F48DC09091CB0299233B
:1004000009F488C09FB7F8944091290750912A07B2
:1004100060912B0770912C079FBF9091050391115C
:1004200079C0009142011091430120914401309123
:1004300045016A017B01C01AD10AE20AF30A970159
:100440008601043F11402105310508F463C091E0A5
:100450002091A002211101C090E020919F02211162
:100460009260813009F05DC094602091400130912C
:1004700041012031310508F490619093040380918B
:10048000CC028093030380913F018093020380910B
:100490003E01809301038091DE02809300038091EE
:1004A0009E028093FF0280913C0190913D019093C8
:1004B000FE028093FD0280913A0190913B0190935E
:1004C000FC028093FB028091DB029091DC0290930E
:1004D000FA028093F9023093F8022093F702809198
:1004E000D7029091D802A091D902B091DA028093FC
:1004F000F3029093F402A093F502B093F60281E028
:10050000809305034093420150934301609344015B
:10051000709345011F910F91FF90EF90DF90CF9066
:100520000895823009F0A1CF98609FCF8091EF02AB
:10053000882361F18091CB02882341F18091D00220
:1005400090913F01891710F480933F0190913E01F3
:10055000981710F480933E01811119C080913C01DD
:1005600090913D018F3F980729F0019690933D01AE
:1005700080933C0180914001909141018F3F980709
:1005800029F00196909341018093400108958F3F97
:1005900089F780913A0190913B018F3F980751F381
:1005A000019690933B0180933A01E4CF1092D702D9
:1005B0001092D8021092D9021092DA021092DC0244
:1005C0001092DB021092DE021092DD0281E0809335
:1005D000460108958091EF02882339F18091CB0282
:1005E000811123C081E08093CB021092A00210926F
:1005F0009F0210929E028FEF80933F0110923E0166
:1006000010923D0110923C0110923B0110923A0170
:1006100010924101109240010E94D6028091460141
:1006200081110E94BB000C949602089585B18170DF
:1006300090910201911104C092E0892B85B908952F
:1006400090E0FBCFCF938091E202C091E302C0958E
:10065000C093D10280950E9424018C2F0E94240116
:100660008EE70E9424011092CE05F8940E94160392
:1006700089E080938100E0E7F0E080818E7F8083D5
:100680008CEB94E09093890080938800789410928A
:10069000E502CF910895DC01FC0101900020E9F70B
:1006A0003197E81BF90B9D01281B390B2E173F07CB
:1006B00050F42D91222339F03091C00035FFFCCF4A
:1006C0002093C600E9CF08951F920F920FB60F92A4
:1006D00011242F933F938F939F93AF93BF93809158
:1006E000290790912A07A0912B07B0912C073091F0
:1006F000280723E0230F2D3758F50196A11DB11DC2
:10070000209328078093290790932A07A0932B070B
:10071000B0932C0780912D0790912E07A0912F0761
:10072000B09130070196A11DB11D80932D079093C4
:100730002E07A0932F07B0933007BF91AF919F91E1
:100740008F913F912F910F900FBE0F901F90189592
:1007500026E8230F0296A11DB11DD2CF1F920F9242
:100760000FB60F9211242F933F934F935F938F9364
:100770009F93EF93FF932091C6008091240790915F
:1007800025070196843531E0930710F090E080E072
:10079000409126075091270748175907E1F48091A7
:1007A000ED029091EE02019649F08091ED02909158
:1007B000EE0201969093EE028093ED02FF91EF918D
:1007C0009F918F915F914F913F912F910F900FBE0D
:1007D0000F901F9018959093250780932407E09120
:1007E0002407F0912507E153FA4F2083E7CF1F92AA
:1007F0000F920FB60F9211241092D2021092B200F3
:100800000F900FBE0F901F9018951F920F920FB66A
:100810000F9211246F927F928F929F92AF92BF920C
:10082000CF92DF92EF92FF920F931F932F933F93FC
:100830004F935F936F937F938F939F93AF93BF93E8
:10084000CF93DF93EF93FF938091CE058823C1F17F
:10085000E091E502EF5FEF70E093E502F0E0ED5F1D
:10086000FE4F808190910201992341F1826085B908
:100870008091E40290E09093890080938800FF913A
:10088000EF91DF91CF91BF91AF919F918F917F9128
:100890006F915F914F913F912F911F910F91FF9019
:1008A000EF90DF90CF90BF90AF909F908F907F9010
:1008B0006F900F900FBE0F901F9018958D7FD7CF20
:1008C000C0917900C093D0028091CE029091CF0266
:1008D0008C0F911D9093CF028093CE022091CD0278
:1008E0002F5F2093CD02203861F4880F892F881F55
:1008F000990B8093CC021092CD021092CF021092ED
:10090000CE028091CC02C81BC093DF028091EF021F
:10091000882321F08091CB02882339F08091460111
:1009200081110E94BB000E9496028091CA028F5FD3
:10093000873009F45BC08093CA02E091CA02F0E0FC
:10094000EE0FFF1FE654FD4F8091C8029091C9023F
:1009500020813181821B930B2091B902C202900148
:10096000112431832083820F931F9093C9028093B7
:10097000C80284369105ECF181E08093B302809146
:10098000B2028F5F893CD8F58093B2028091B102A8
:100990008823B9F19091B202943B98F18091EF02D3
:1009A000882319F080E00E94F2011092AC021092AC
:1009B000AB021092B1021092A7021092A8021092FC
:1009C000A9021092AA021092A6021092AF021092EF
:1009D000A5021092AD0228980E94D6028091EF02E3
:1009E000882309F44CCF0E94D70149CF1092CA0244
:1009F000A4CF8D399F4F1CF61092B302C0CF88EC64
:100A0000C3CF1092B0029091B8029093B902909126
:100A1000B7029093B8029091B6029093B70290916A
:100A2000B5029093B6029091B4029093B502C09330
:100A3000B402D091B3023091AE02882309F476C09B
:100A40008091AF029FEF980F9093AF02D31759F0A8
:100A5000D093AE021092B20228EF280F2230A8F5F0
:100A600082508093AF028091AF02811114C08BE05D
:100A70008093AF028091A50291E0980F9093A50218
:100A80009091A4029D1739F08E5F8093B00210926E
:100A9000A502D093A402E091B002EE2309F4EFCEB8
:100AA000E150E093B002E150E73008F065C1F0E0BA
:100AB000E25AFA4F8091A6020C946E0B2706FC05B1
:100AC000060667066A066D069206923050F28A5054
:100AD000823048F68091AD028F5F8093AD02863000
:100AE00008F4C1CF8091EF02882319F080E00E94C2
:100AF000F2011092AD021092AC021092AB02109271
:100B0000B1021092A7021092A8021092A9021092AC
:100B1000AA021092A6021092AF021092A502809132
:100B2000EF0281110E94D7012898A9CE2091B2022C
:100B3000C22FCB3010F0CB50FCCFC093A30295E076
:100B4000920F41E0480F9C3018F09B50842FF9CF52
:100B50008093A5029093A2028091EF02D3130AC062
:100B6000882309F48CCE253B08F489CE80E00E94CE
:100B7000F20139CF81110E94EA02D093AE021092A5
:100B8000B202C4508091EF02C430D8F4882319F027
:100B900080E00E94F2011092A7021092A802109227
:100BA000A9021092AA021092A6028091EF0281116E
:100BB0000E94D70128988091A5028F5F8093B00290
:100BC0006ACF8823C1F38091A1028F3F19F08F5F14
:100BD0008093A102D091A102D33068F3C1E0C09309
:100BE000A00281E00E94AE00D63028F3C0939F029D
:100BF00082E00E94AE00DFCF21E030E0A90102C018
:100C0000440F551F8A95E2F7CA0109C023E030E07E
:100C1000F90102C0EE0FFF1F8A95E2F7CF01092EFE
:100C2000000CAA0BBB0B4091A7025091A802609147
:100C3000A9027091AA02842B952BA62BB72B809327
:100C4000A7029093A802A093A902B093AA02809150
:100C5000A6029091B002890F8093A602C1E098E0AD
:100C6000B92ECC24CA94DC2C32E0A32E4FE0742E93
:100C70008091A602883008F409C22091A7028091D1
:100C8000B1022E3709F0C9C1811198C08091EF02DD
:100C9000882331F00E94EA02C093A002C0939F0211
:100CA000C093B10228980E94D6028091B30280932B
:100CB000A4021092AD027092AF021092A502809130
:100CC000EF028111C0939E02B0929D0291C027E075
:100CD00030E094CF2FE030E09BCF2FE130E0A9014E
:100CE00002C0440F551F8A95E2F7CA01092E000C75
:100CF000AA0BBB0B4091A7025091A8026091A902D8
:100D00007091AA02842B952BA62BB72B8093A70258
:100D10009093A802A093A902B093AA0285E08093C1
:100D2000B00295CF843090F48EE790E0A0E0B0E080
:100D30008093A7029093A802A093A902B093AA025D
:100D400088E08093A6021092B00281CF8091A70222
:100D50009091A802A091A902B091AA029927AA276E
:100D6000BB279E678093A7029093A802A093A90235
:100D7000B093AA0280E1E5CF8091EF02882319F0B9
:100D800080E00E94F2011092AC021092AB0210922D
:100D9000B1021092A7021092A8021092A90210921A
:100DA000AA021092A6021092B00228988091EF0237
:100DB000882309F44CCF0E94D70149CF0091AB02A0
:100DC0001091AC020A30110598F5B0929D02809105
:100DD000EF02882369F00E94EA02C093A002C09348
:100DE0009F0280919E028F3F19F08F5F80939E0239
:100DF00020919D028091A7029091A802A091A90242
:100E0000B091AA02022E04C0B695A7959795879532
:100E10000A94D2F78093A7029093A802A093A90204
:100E2000B093AA028091A602821B8093A60220CFD3
:100E300010924701D092E302C092E20288E4882E29
:100E400081E0982E780152E0E51AF108C401885437
:100E500091408E159F0568F4F40161904F01D8E030
:100E6000862D817090E00E9410016694D150C1F7E8
:100E7000EDCF9091E2028091E302F701E85BFE4F33
:100E800090952081291307C0F801E95BFE4F8095FA
:100E90009081981739F18091EF02882319F082E050
:100EA0000E94F2010E94D60228988091E702909158
:100EB000E8028F3F980729F001969093E80280930B
:100EC000E7028091EF02882321F00E94D701C093AE
:100ED0009E021092AC021092AB021092AD021092E0
:100EE000A502F2CE8091E9029091EA028F3F980725
:100EF00029F001969093EA028093E9028091EF0233
:100F0000882319F081E00E94F2010E9486010C976B
:100F100068F12091DB023091DC02D0E010E0211575
:100F2000310571F050E040E06091D7027091D80235
:100F30008091D9029091DA020E944C0BD22F132F8C
:100F400080EC0E94A8018EE00E94A80181E00E942E
:100F5000A8018091DE020E94E401812F0E94E40139
:100F60008D2F0E94E40180EC0E94A8010E94D6020D
:100F7000289808E411E08091AB029091AC020297AE
:100F800098012854314028173907E8F5F801D19124
:100F90008F0180914701813071F180F08230D1F072
:100FA000D03C19F48BED0E94A8018D2F0E94A8015E
:100FB000DB3D09F78DED0E94A801DDCF80EC0E949A
:100FC000A80180E00E94A8018D2F0E94A801C09373
:100FD0004701D1CFD03F39F480EF0E94A80183E0D0
:100FE00080934701C8CF8DE00E94A8018AE00E944B
:100FF000A801289866CFD33099F683E00E94A80113
:10100000A0924701B8CF80EC0E94A8018DE00E9419
:10101000A8018AE00E94A80154CF8130A1F58091F7
:10102000AB029091AC02FC01E85BFE4F208301967D
:101030009093AC028093AB0285359140F8F080919B
:10104000EF02882319F080E00E94F2011092AD02B5
:101050001092AC021092AB021092B1021092A70251
:101060001092A8021092A9021092AA021092A6024F
:101070001092AF021092A5022898B0CC233009F04C
:1010800023CE289A21CEC0939D02B2CE7894F7CB7E
:10109000CF93DF9300D000D000D0CDB7DEB77894E7
:1010A00084B5826084BD84B5816084BD85B582606D
:1010B00085BD85B5816085BD80916E00816080931E
:1010C0006E00109281008091810082608093810087
:1010D0008091810081608093810080918000816097
:1010E000809380008091B10084608093B1008091F2
:1010F000B00081608093B00080917A00846080931A
:101100007A0080917A00826080937A0080917A00E0
:10111000816080937A0080917A00806880937A0061
:101120001092C10084B78093E60214BE0FB6F89403
:10113000A8958091600088618093600010926000A3
:101140000FBE88E199E20FB6F894A89580936000ED
:101150000FBE90936000F8941092C50087E68093CC
:10116000C4008091C00082608093C0008091C10063
:1011700088618093C1008091C20086608093C20024
:101180008091C10080688093C10080E480937C00DE
:1011900080917C00806280937C0094E090937A0040
:1011A00080917A00806280937A0010927B00809117
:1011B0007E00816080937E0080917A0080688093B9
:1011C0007A0080917A00806480937A001092800087
:1011D00089E080938100109282002CEB34E0309300
:1011E00089002093880082E080936F001092B00005
:1011F0009093B10081E087BB8FE384B985B115B8C6
:101200000E94780083E191E00E944B0385E391E026
:101210000E944B0378940E9478005E0122E0A20EA7
:10122000B11CCE0101969C838B83FF24F3948091A3
:10123000310790913207009711F485E397E0F501AB
:10124000E81BF90B2091000130910101E217F3072F
:1012500020F4F0930101E09300018BB1F4E08F27BB
:101260008BB92FB7F89440912607509127078091AA
:101270002407909125074817590709F446C0809123
:101280002607909127070196843531E0930710F0E7
:1012900090E080E0909327078093260781539A4F30
:1012A000FC01E08081E02FBF882309F44BC08091CE
:1012B000F202803C09F041C1E1102AC01092E5021F
:1012C000F7E6F093E402F8948091700081608093D7
:1012D00070002AE0209381003DEC3093B200F09240
:1012E000CE0578948FEF9FEF9093E3028093E20214
:1012F0001092E1021091E102123378F48EE70E941D
:1013000024011F5F1093E102F5CF80E0E12CCBCFE9
:101310009BE0E91299C0F092F102E092F2022FB73D
:10132000F8948091290790912A07A0912B07B091FA
:101330002C072FBF8093CA059093CB05A093CC05B3
:10134000B093CD0580910503882309F44BC14FB7B5
:10135000F89480910503882309F443C12090040385
:10136000309003034090020350900103609000030B
:101370007090FF02C090FD02D090FE028091FB02AF
:101380009091FC029E838D832091F9023091FA02A4
:101390008090F7029090F8026091F3027091F4024D
:1013A0008091F5029091F6024FBF10E000E0211508
:1013B000310531F050E040E00E944C0B122F032F1A
:1013C000EFB6F894809105038823E1F10E9486012D
:1013D0008497C0F180EC0E94A80180E10E94A801DE
:1013E00082E00E94A801822D0E94E401832D0E94C8
:1013F000E401842D0E94E401852D0E94E401862DE4
:101400000E94E401802F0E94E401812F0E94E401E8
:101410008D2D0E94E4018C2D0E94E4018E810E949A
:10142000E4018D810E94E401872D0E94E401892D51
:101430000E94E401882D0E94E40180EC0E94A80132
:1014400010920503EFBECEC0EDE0EE1270C0009129
:101450003107109132070115110511F405E317E06A
:10146000DFB6F8940E948601829708F45EC02B8153
:101470003C81201B310B8901809100019091010179
:101480002817390720F4309301012093000180ECE4
:101490000E94A8018DE00E94A80182E00E94A8019C
:1014A00081E00E94A801812F0E94E401802F0E9408
:1014B000E40110910001809101010E94E401812F5B
:1014C0000E94E4018091ED029091EE02892F0E942A
:1014D000E4018091ED029091EE020E94E40180917E
:1014E000EB029091EC02892F0E94E4018091EB02C3
:1014F0009091EC020E94E4011091E9028091EA02CD
:101500000E94E401812F0E94E4011091E702809182
:10151000E8020E94E401812F0E94E4018091E6022A
:101520000E94E40180EC0E94A801DFBEF6CE3FE0FD
:10153000E312F3CEF092F002F0CE9091F0029923F4
:10154000B1F08091CE0581110FC080ECE81661F0FA
:1015500081E0E11001C080E0809302018091CE051E
:10156000811102C00E9416031092F002D6CE909113
:10157000F1029923A1F090ECE91671F081E0E110FD
:1015800001C080E08093EF020E94D7018091EF02BA
:10159000811102C0109205031092F102BECEE0EC60
:1015A000EE1207C08091CE058130A1F40E94220383
:1015B000B4CEFCEDEF1207C08B3D09F0AECE80EC4F
:1015C0000E942401AACE2DEDE21204C08B3D09F049
:1015D000A4CEF6CF8091CE05813009F09ECE8E2D1F
:1015E000EFCF4FBF8091CE058823F1F02FB7F8944D
:1015F0008091290790912A07A0912B07B0912C0781
:101600002FBF4091CA055091CB056091CC057091D8
:10161000CD05841B950BA60BB70B893E9340A10506
:10162000B10510F00E9422032FB7F8944091C8052D
:101630005091C9058091C6059091C7054817590773
:10164000E9F08091C8059091C9050196803CF2E0CF
:101650009F0710F090E080E09093C9058093C80543
:101660008A5F9C4FFC01808191E02FBF992359F044
:101670009091C00095FD05C0A895FACF90E080E05C
:10168000F4CF8093C600A89520E030E0232B09F426
:10169000CECD0E940000C9CDA1E21A2EAA1BBB1B11
:1016A000FD010DC0AA1FBB1FEE1FFF1FA217B3072E
:1016B000E407F50720F0A21BB30BE40BF50B661F44
:1016C000771F881F991F1A9469F760957095809508
:1016D00090959B01AC01BD01CF010895EE0FFF1F56
:0C16E0000590F491E02D0994F894FFCFE0
:1016EC00FFFF013A162E1E3E1E2E16062A1222024D
:1016FC0022122A41726475696E6F20544E43207613
:10170C002E302E31352E313320446961676E6F7364
:0A171C0074696373000A0A0A0000F2
:00000001FF
