:100000000C9434000C9451000C9451000C94510049
:100010000C9451000C9451000C9451000C9451001C
:100020000C9451000C9424020C9451000C94320254
:100030000C9451000C9451000C9451000C945100FC
:100040000C94AD010C9451000C94F7010C945100E8
:100050000C9451000C9451000C9451000C945100DC
:100060000C9451000C94510011241FBECFEFD8E026
:10007000DEBFCDBF11E0A0E0B1E0E6E3FFE002C0EB
:1000800005900D92A833B107D9F726E0A8E3B1E0B7
:1000900001C01D92AE3FB207E1F70E94BE050C946D
:1000A00099070C9400003FB7F8948091FA0690915C
:1000B000FB06A091FC06B091FD0626B5A89B05C0E5
:1000C0002F3F19F00196A11DB11D3FBFBA2FA92FD7
:1000D000982F8827BC01CD01620F711D811D911DD4
:1000E00042E0660F771F881F991F4A95D1F7089540
:1000F0008F929F92AF92BF92CF92DF92EF92FF9238
:100100000E9453004B015C0188EEC82E83E0D82E7C
:10011000E12CF12C0E945300681979098A099B0986
:10012000683E734081059105A8F321E0C21AD10809
:10013000E108F10888EE880E83E0981EA11CB11C2E
:10014000C114D104E104F10429F7FF90EF90DF908E
:10015000CF90BF90AF909F908F9008954091CD0227
:100160005091CE029A0136952795842780FD05C0CF
:100170003093CE022093CD02089588E0282784E8AA
:100180003827F6CF0F931F93CF93DF93182F8093C9
:10019000CB021092CA02D1E002E38091CA028830F9
:1001A00008F04DC0C091CB02C170C093C9021E3788
:1001B00001F5C11141C01092C8028091CF0287366B
:1001C000B9F187E68093CF028091CB0290E09595BC
:1001D00087958093CB02D093C7020093B2008091A1
:1001E000C7028111FCCF8091CA028F5F8093CA023F
:1001F000D4CF8C2F90E00E94AE00CC23E1F280910E
:10020000C8028F5F8093C8028530F1F6D093C70291
:100210000093B2008091C7028111FCCF8091CF0280
:10022000873641F488E38093CF021092C802CCCF86
:1002300088E3C8CF87E6F7CFD093C802C5CFDF9158
:10024000CF911F910F9108952091930530919405BE
:100250002F5F3F4F3093940520939305203C32400D
:1002600020F01092940510929305E0919305F0917F
:100270009405ED52FD4F80830895803C31F48BED61
:100280000E9424018CED0C9424018B3DE1F70E9427
:1002900024018DEDF8CF10923B0110923C01109299
:1002A0003D0110923E011092400110923F011092C8
:1002B0003A011092380181E080933901089585B1A7
:1002C000817090910001911104C092E0892B85B951
:1002D000089590E0FBCFCF938091CD02C091CE02E4
:1002E000C095C093C60280950E94C2008C2F0E94C8
:1002F000C2008EE70E94C20010929B05F8940E94F3
:100300005F0189E080938100E0E7F0E080818E7FEB
:1003100080838CEB94E0909389008093880078949C
:100320001092D002CF910895DC01FC0101900020D1
:10033000E9F73197E81BF90B9D01281B390B2E17A4
:100340003F0750F42D91222339F03091C00035FF42
:10035000FCCF2093C600E9CF08951F920F920FB6ED
:100360000F9211242F933F938F939F93AF93BF933B
:100370008091F6069091F706A091F806B091F906E3
:100380003091F50623E0230F2D3758F50196A11D76
:10039000B11D2093F5068093F6069093F706A0937F
:1003A000F806B093F9068091FA069091FB06A091A9
:1003B000FC06B091FD060196A11DB11D8093FA06C1
:1003C0009093FB06A093FC06B093FD06BF91AF91FE
:1003D0009F918F913F912F910F900FBE0F901F9083
:1003E000189526E8230F0296A11DB11DD2CF1F92AA
:1003F0000F920FB60F9211242F938F939F93EF9329
:10040000FF938091F1069091F20601969093F20687
:100410008093F1068435914020F01092F2061092FC
:10042000F106E091F106F091F2068091C600E456E3
:10043000FA4F8083FF91EF919F918F912F910F90B1
:100440000FBE0F901F9018951F920F920FB60F922C
:1004500011241092C7021092B2000F900FBE0F909D
:100460001F9018951F920F920FB60F9211246F9242
:100470007F928F929F92AF92BF92CF92DF92EF9234
:10048000FF920F931F932F933F934F935F936F931D
:100490007F938F939F93AF93BF93CF93DF93EF930C
:1004A000FF9380919B058823C1F1E091D002EF5F1B
:1004B000EF70E093D002F0E0EF5FFE4F808190910B
:1004C0000001992341F1826085B98091CF0290E0CB
:1004D0009093890080938800FF91EF91DF91CF91F5
:1004E000BF91AF919F918F917F916F915F914F914C
:1004F0003F912F911F910F91FF90EF90DF90CF9040
:10050000BF90AF909F908F907F906F900F900FBE95
:100510000F901F9018958D7FD7CF809179002091F3
:10052000C4023091C502280F311D3093C5022093BB
:10053000C4029091C3029F5F9093C302903861F40C
:10054000220F232F221F330B2093C2021092C302CB
:100550001092C5021092C4029091C202891B80932E
:10056000C102282F082E000C330B909139019923DA
:1005700099F037FF03C031952195310990913A01E7
:10058000921710F420933A01909138019F5F9430B4
:1005900008F09CC0909338019091C0029F5F973003
:1005A00009F4CAC09093C002E091C002F0E0EE0FDF
:1005B000FF1FE055FD4F2091BE023091BF024081E8
:1005C0005181241B350B4091AF028402A0011124FC
:1005D00051834083240F351F3093BF022093BE0206
:1005E000243631050CF4ABC091E09093A9029091B0
:1005F000A8029F5F993C08F0A9C09093A8021092AE
:10060000A7029091AE029093AF029091AD029093A9
:10061000AE029091AC029093AD029091AB02909398
:10062000AC029091AA029093AB028093AA023091FF
:10063000A6022091A9024091A402332309F498C094
:100640008091A5029FEF980F9093A502241761F067
:100650002093A4021092A80238EF380F323008F02D
:1006600077C082508093A5028091A502811114C0A9
:100670008BE08093A50280919B0291E0980F90936C
:100680009B0290919A02921739F08E5F8093A70295
:1006900010929B0220939A02E091A702EE2309F4A4
:1006A0001BCFE150E093A702E150E73008F03FC1D3
:1006B000F0E0E15AFC4F80919C020C9493071304E4
:1006C000E803F2034204450448046D041092380123
:1006D00020913F01309140012F3F320709F45CCF58
:1006E0008802A001112470E060E0C0903B01D0902E
:1006F0003C01E0903D01F0903E014A015B01809495
:100700009094A094B0948C149D04AE04BF0408F49B
:1007100043CF4C0D5D1D6E1D7F1D40933B015093DB
:100720003C0160933D0170933E012F5F3F4F30933A
:10073000400120933F0130CF1092C00235CF2D39B8
:100740003F4F0CF054CF1092A90251CF98EC55CFE7
:10075000923008F487CF8A50823008F085CF80919C
:10076000A3028F5F863008F0E7C18093A3027CCF9D
:100770009091A802892F8B3010F08B50FCCF809382
:1007800099029B5F51E0530F9C3018F09B50352F1E
:10079000F9CF30939B0290939802241709F49CCED2
:1007A0002093A4021092A8028450843058F410922E
:1007B0009D0210929E0210929F021092A00210922F
:1007C0009C02289880919B028F5F8093A70264CF40
:1007D00021E030E0F90102C0EE0FFF1F8A95E2F739
:1007E000CF0109C023E030E0A90102C0440F551F2A
:1007F0008A95E2F7CA01092E000CAA0BBB0B4091A7
:100800009D0250919E0260919F027091A002842BE4
:10081000952BA62BB72B80939D0290939E02A093BD
:100820009F02B093A00280919C029091A702890F31
:1008300080939C02FF24F39428E0E22ECC24CA94F7
:10084000DC2C42E0942E5FE0852E80919C02883063
:1008500008F492C120919D028091A6022E3709F0E2
:1008600059C1811178C0F092A6020E944B0180917B
:10087000A90280939A021092A3028092A50210927C
:100880009B0270C027E030E0A5CF2FE030E0ACCF76
:100890002FE130E0F90102C0EE0FFF1F8A95E2F769
:1008A000CF01092E000CAA0BBB0B40919D02509169
:1008B0009E0260919F027091A002842B952BA62B23
:1008C000B72B80939D0290939E02A0939F02B093BA
:1008D000A00285E08093A702A6CF843090F48EE733
:1008E00090E0A0E0B0E080939D0290939E02A093E0
:1008F0009F02B093A00288E080939C021092A7020E
:1009000092CF80919D0290919E02A0919F02B09102
:10091000A0029927AA27BB279E6780939D029093E8
:100920009E02A0939F02B093A00280E1E5CF1092B7
:10093000A2021092A1021092A60210929D021092A1
:100940009E0210929F021092A00210929C0210929E
:10095000A702289868CFC091A102D091A202CA3004
:10096000D10510F5E09297022091970280919D02A7
:1009700090919E02A0919F02B091A002022E04C00D
:10098000B695A795979587950A94D2F780939D027F
:1009900090939E02A0939F02B093A00280919C022C
:1009A000821B80939C0251CF10924101D092CE02C3
:1009B000C092CD0292E4A92E91E0B92E8E01025090
:1009C0001109C501825491408017910778F4F5010F
:1009D00061905F0188E0782E862D817090E00E9402
:1009E000AE0066947A947110F7CFEBCF9091CD0260
:1009F0008091CE02F801EE5BFE4F90952081291385
:100A000006C0CF5BDE4F80959881981749F00E9411
:100A10004B011092A2021092A1021092A3022FCFBA
:100A200020913F0130914001C0E0D0E02115310517
:100A300069F050E040E060913B0170913C01809191
:100A40003D0190913E010E947107E90180EC0E94F6
:100A500024018EE00E94240181E00E942401809103
:100A60003A010E943D018D2F0E943D018C2F0E9472
:100A70003D0180EC0E9424010E944B0102E411E040
:100A80008091A1029091A2020297980122543140D4
:100A900028173907A8F5F801C1918F01809141010C
:100AA000813031F180F08230D1F0C03C19F48BED0F
:100AB0000E9424018C2F0E942401CB3D09F78DED6B
:100AC0000E942401DDCF80EC0E94240180E00E947E
:100AD00024018C2F0E942401F0924101D1CFC03F0C
:100AE00091F480EF0E94240183E080934101C8CFFC
:100AF000C330D9F683E00E94240190924101C0CF17
:100B000080EC0E9424018DE00E9424018AE00E9472
:100B100024017FCF813069F58091A1029091A202DA
:100B2000FC01EE5BFE4F208301969093A20280931E
:100B3000A10285359140C0F01092A3021092A2024A
:100B40001092A1021092A60210929D0210929E0293
:100B500010929F021092A00210929C021092A50285
:100B600010929B022898B8CC233009F0FBCE289A2B
:100B7000F9CEF0929702F8CE7894AECC789484B502
:100B8000826084BD84B5816084BD85B5826085BD89
:100B900085B5816085BD80916E00816080936E0017
:100BA0001092810080918100826080938100809109
:100BB00081008160809381008091800081608093BA
:100BC00080008091B10084608093B1008091B0007A
:100BD00081608093B00080917A00846080937A0075
:100BE00080917A00826080937A0080917A0081609F
:100BF00080937A0080917A00806880937A001092C6
:100C0000C10088E199E20FB6F894A895809360003E
:100C10000FBE90936000F8941092C50087E6809311
:100C2000C4008091C00082608093C0008091C100A8
:100C300088618093C1008091C20086608093C20069
:100C40008091C10080688093C10080E480937C0023
:100C500080917C00806280937C0094E090937A0085
:100C600080917A00806280937A0010927B0080915C
:100C70007E00816080937E0080917A0080688093FE
:100C80007A0080917A00806480937A0010928000CC
:100C900089E080938100109282002CEB34E0309345
:100CA00089002093880082E080936F001092B0004A
:100CB0009093B10081E087BB8FE384B985B115B80B
:100CC0000E94780081E191E00E94940183E391E029
:100CD0000E94940178940E94780084E0C82E9AE0E3
:100CE000B92E2DECA22E00E010E0DD24D39437E6DF
:100CF000932EEE24EA94FE2C8BB18C258BB9209197
:100D0000F3063091F4068091F1069091F2062817CF
:100D1000390709F459C08091F3069091F4060196C1
:100D20009093F4068093F3068435914020F010925E
:100D3000F4061092F306E091F306F091F406E456FF
:100D4000FA4FC0818091D202803C09F081C0C1116C
:100D500022C01092D0029092CF02F894809170003D
:100D6000816080937000B0928100A092B200D09216
:100D70009B057894F092CE02E092CD021092CC02C4
:100D8000D091CC02D23358F48EE70E94C200DF5FCC
:100D9000D093CC02F5CFCF3011F4D092D102C093D2
:100DA000D2022FB7F8948091F6069091F706A091A1
:100DB000F806B091F9062FBF809397059093980598
:100DC000A0939905B0939A0580919B058823F1F033
:100DD0002FB7F8948091F6069091F706A091F80647
:100DE000B091F9062FBF40919705509198056091F9
:100DF000990570919A05841B950BA60BB70B893E3C
:100E00009340A105B10510F00E946B01209195055A
:100E10003091960580919305909194052817390794
:100E200009F457C08091950590919605019690938D
:100E3000960580939505803C924020F0109296058F
:100E4000109295058091C00085FD3AC0A895FACF13
:100E50009091D1029923A9F080919B0581110EC038
:100E6000C03C61F081E0C11101C080E080930001CD
:100E700080919B05811102C00E945F011092D102F6
:100E80008ECFC03C39F480919B05813091F40E9453
:100E90006B0185CFCC3D39F48B3D09F080CF80ECE0
:100EA0000E94C2007CCFCD3D21F48B3D09F077CF6D
:100EB000F7CF80919B05813009F071CF8C2FF0CF57
:100EC000E0919505F0919605ED52FD4F808180935C
:100ED000C600A8950115110509F40ECF0E94000067
:100EE0000BCFA1E21A2EAA1BBB1BFD010DC0AA1F2E
:100EF000BB1FEE1FFF1FA217B307E407F50720F083
:100F0000A21BB30BE40BF50B661F771F881F991FFD
:100F10001A9469F760957095809590959B01AC0146
:100F2000BD01CF010895EE0FFF1F0590F491E02D54
:060F30000994F894FFCFC4
:100F3600013A162E1E3E1E2E16062A1222022212D4
:100F46002A41726475696E6F20544E4320762E30A6
:100F56002E31352E372052582D4C6576656C205033
:080F66005454000A0A0A0000BD
:00000001FF
