:100000000C9434000C9451000C9451000C94510049
:100010000C9451000C9451000C9451000C9451001C
:100020000C9451000C94FA020C9451000C940803A7
:100030000C9451000C9451000C9451000C945100FC
:100040000C9467020C9451000C94B1020C94510072
:100050000C9451000C9451000C9451000C945100DC
:100060000C9451000C94510011241FBECFEFD8E026
:10007000DEBFCDBF11E0A0E0B1E0ECE1F4E102C0F1
:1000800005900D92AA33B107D9F727E0AAE3B1E0B2
:1000900001C01D92A731B207E1F70E946F070C94CF
:1000A0000C0A0C9400003FB7F89480910F079091D0
:1000B0001007A0911107B091120726B5A89B05C0A3
:1000C0002F3F19F00196A11DB11D3FBFBA2FA92FD7
:1000D000982F8827BC01CD01620F711D811D911DD4
:1000E00042E0660F771F881F991F4A95D1F7089540
:1000F0008F929F92AF92BF92CF92DF92EF92FF9238
:100100000E9453004B015C0188EEC82E83E0D82E7C
:10011000E12CF12C0E945300681979098A099B0986
:10012000683E734081059105A8F321E0C21AD10809
:10013000E108F10888EE880E83E0981EA11CB11C2E
:10014000C114D104E104F10429F7FF90EF90DF908E
:10015000CF90BF90AF909F908F9008954091D7021D
:100160005091D8029A0136952795842780FD05C0C5
:100170003093D8022093D702089588E0282784E896
:100180003827F6CF0F931F93CF93DF93182F8093C9
:10019000D5021092D402D1E002E38091D4028830DB
:1001A00008F04DC0C091D502C170C093D3021E3774
:1001B00001F5C11141C01092D2028091D902873657
:1001C000B9F187E68093D9028091D50290E09595A8
:1001D00087958093D502D093D1020093B20080918D
:1001E000D1028111FCCF8091D4028F5F8093D40221
:1001F000D4CF8C2F90E00E94AE00CC23E1F280910E
:10020000D2028F5F8093D2028530F1F6D093D10273
:100210000093B2008091D1028111FCCF8091D9026C
:10022000873641F488E38093D9021092D202CCCF72
:1002300088E3C8CF87E6F7CFD093D202C5CFDF914E
:10024000CF911F910F9108952091A8053091A90594
:100250008091AA059091AB052817390768F0809125
:10026000AA059091AB052091A8053091A90581546C
:100270009D4F821B930B08958091AA059091AB0529
:100280002091A8053091A9050197F3CF2091A805E9
:100290003091A9052F5F3F4F203C92E0390710F0C5
:1002A00030E020E04091AA055091AB05421753077A
:1002B00081F48091E0029091E1020196A9F0809191
:1002C000E0029091E10201969093E1028093E002B6
:1002D00008953093A9052093A805E091A805F09111
:1002E000A905E851FD4F8083089510923E011092B8
:1002F000A10210929F020895803C31F48BED0E9480
:1003000046018CED0C9446018B3DE1F70E944601BD
:100310008DEDF8CFCF92DF92EF92FF920F931F9364
:10032000CF93DF939091E402992309F465C09091F3
:100330003E01982309F060C0613009F440C09091FB
:100340003E01892B80933E01613099F42FB7F894D8
:1003500080910B0790910C07A0910D07B0910E07AB
:100360002FBF80933A0190933B01A0933C01B0933F
:100370003D018091E402882309F43EC0152FD42F5B
:10038000C62F0E9424010C97B8F180EC0E94460110
:100390008CE00E9446018C2F0E947C01812F0E94DC
:1003A0007C018D2F0E947C0180ECDF91CF911F9109
:1003B0000F91FF90EF90DF90CF900C9446019FB784
:1003C000F89400910B0710910C0720910D073091C4
:1003D0000E079FBFC0903A01D0903B01E0903C01D6
:1003E000F0903D010C191D092E093F0900391140FB
:1003F0002105310508F0A3CFDF91CF911F910F9117
:10040000FF90EF90DF90CF900895109242011092EC
:10041000430110924401109245011092470110923D
:1004200046011092410110923F0181E0809340010A
:10043000089585B1817090910201911104C092E0FC
:10044000892B85B9089590E0FBCFCF938091D70297
:10045000C091D802C095C093D00280950E94C2007E
:100460008C2F0E94C2008EE70E94C2001092B0053D
:10047000F8940E94190289E080938100E0E7F0E09F
:1004800080818E7F80838CEB94E0909389008093B1
:10049000880078941092DA02CF910895DC01FC0173
:1004A00001900020E9F73197E81BF90B9D01281B0B
:1004B000390B2E173F0750F42D91222339F030913C
:1004C000C00035FFFCCF2093C600E9CF08951F92EE
:1004D0000F920FB60F9211242F933F938F939F93F8
:1004E000AF93BF9380910B0790910C07A0910D07DC
:1004F000B0910E0730910A0723E0230F2D3758F5EE
:100500000196A11DB11D20930A0780930B079093BC
:100510000C07A0930D07B0930E0780910F079091E1
:100520001007A0911107B09112070196A11DB11DEE
:1005300080930F0790931007A0931107B0931207B1
:10054000BF91AF919F918F913F912F910F900FBECF
:100550000F901F90189526E8230F0296A11DB11D3C
:10056000D2CF1F920F920FB60F9211242F933F9369
:100570004F935F938F939F93EF93FF932091C600C8
:1005800080910607909107070196843531E0930723
:1005900010F090E080E0409108075091090748175B
:1005A0005907E1F48091E2029091E302019649F04B
:1005B0008091E2029091E30201969093E30280938E
:1005C000E202FF91EF919F918F915F914F913F9147
:1005D0002F910F900FBE0F901F90189590930707C3
:1005E00080930607E0910607F0910707EF54FA4F52
:1005F0002083E7CF1F920F920FB60F921124109213
:10060000D1021092B2000F900FBE0F901F9018955C
:100610001F920F920FB60F9211246F927F928F92BA
:100620009F92AF92BF92CF92DF92EF92FF920F9381
:100630001F932F933F934F935F936F937F938F936A
:100640009F93AF93BF93CF93DF93EF93FF938091EB
:10065000B0058823C1F1E091DA02EF5FEF70E0931B
:10066000DA02F0E0ED5FFE4F808190910201992364
:1006700041F1826085B98091D90290E09093890020
:1006800080938800FF91EF91DF91CF91BF91AF915F
:100690009F918F917F916F915F914F913F912F919A
:1006A0001F910F91FF90EF90DF90CF90BF90AF9090
:1006B0009F908F907F906F900F900FBE0F901F9024
:1006C00018958D7FD7CF809179002091CE023091FF
:1006D000CF02280F311D3093CF022093CE0290918C
:1006E000CD029F5F9093CD02903861F4220F232FAB
:1006F000221F330B2093CC021092CD021092CF0216
:100700001092CE029091CC02891B8093CB02282FAD
:10071000082E000C330B90914001992399F037FF7C
:1007200003C031952195310990914101921710F440
:100730002093410190913F019F5F943008F060C089
:1007400090933F019091CA029F5F973009F48EC049
:100750009093CA02E091CA02F0E0EE0FFF1FE65448
:10076000FD4F2091C8023091C90240815181241B64
:10077000350B4091B9028402A001112451834083BA
:10078000240F351F3093C9022093C8022436310547
:100790000CF46FC091E09093B3029091B2029F5F0E
:1007A000993C08F06DC09093B2022091B1022223CF
:1007B00009F468C09091B202943B08F463C01092AF
:1007C000AC021092AB021092B1021092A7021092EA
:1007D000A8021092A9021092AA021092A6021092E8
:1007E000AF021092A5021092AD0228980E94050255
:1007F0008091E402882309F445CF0E94750142CF1D
:1008000010923F0120914601309147012F3F32075E
:1008100009F498CF8802A001112470E060E0C09034
:100820004201D0904301E0904401F09045014A011B
:100830005B0180949094A094B0948C149D04AE04B9
:10084000BF0408F47FCF4C0D5D1D6E1D7F1D4093CE
:1008500042015093430160934401709345012F5F1F
:100860003F4F30934701209346016CCF1092CA024C
:1008700071CF2D393F4F0CF090CF1092B3028DCF36
:1008800098EC91CF1092B0029091B8029093B90277
:100890009091B7029093B8029091B6029093B702EC
:1008A0009091B5029093B6029091B4029093B502E4
:1008B0008093B4029091B3025091AE02222309F4C6
:1008C0006FC08091AF022FEF280F2093AF029517D2
:1008D00059F09093AE021092B20238EF380F3230D6
:1008E000A8F582508093AF028091AF02811114C0AD
:1008F0008BE08093AF028091A50221E0280F209326
:10090000A5022091A402291739F08E5F8093B002CE
:100910001092A5029093A402E091B002EE2309F494
:10092000B1CEE150E093B002E150E73008F04BC1A6
:10093000F0E0E156FB4F8091A6020C94060A5705A1
:100940002C0536058E0591059405B905223050F227
:100950008A50823048F68091AD028F5F863018F45D
:100960008093AD02C1CF1092AD021092AC021092F2
:10097000AB021092B1021092A7021092A80210923C
:10098000A9021092AA021092A6021092AF0210922F
:10099000A5028091E40281110E947501289872CE0F
:1009A0004091B202842F8B3010F08B50FCCF80939B
:1009B000A30235E0340F61E0620F3C3018F03B5089
:1009C000262FF9CF2093A5023093A202951309C0D8
:1009D0008091E402882309F455CE453B08F452CEB9
:1009E0000CCF9093AE021092B20284508430B0F4D7
:1009F0001092A7021092A8021092A9021092AA02C5
:100A00001092A6028091E40281110E94750128983B
:100A10008091A5028F5F8093B0027ECF8091E40227
:100A20008823B1F38091A1028F3F19F08F5F8093EB
:100A3000A102C091A102C33058F350E040E061E050
:100A400081E00E948A01C63018F350E040E062E085
:100A500082E00E948A01DCCF21E030E0F90102C08F
:100A6000EE0FFF1F8A95E2F7CF0109C023E030E0C7
:100A7000A90102C0440F551F8A95E2F7CA01092E49
:100A8000000CAA0BBB0B4091A7025091A8026091E9
:100A9000A9027091AA02842B952BA62BB72B8093C9
:100AA000A7029093A802A093A902B093AA028091F2
:100AB000A6029091B002890F8093A60211E008E08F
:100AC000CC24CA94DC2C42E0942E5FE0852E8091E9
:100AD000A602883008F401C2F090A702F092A002AA
:100AE0008091B102FEE7FF12BBC1811187C0109354
:100AF000B10228980E9405028091B3028093A4025B
:100B00001092AD028092AF021092A5028091E40291
:100B1000811110939F0200939E0284C027E030E071
:100B20009DCF2FE030E0A4CF2FE130E0F90102C0EB
:100B3000EE0FFF1F8A95E2F7CF01092E000CAA0BDA
:100B4000BB0B4091A7025091A8026091A90270913D
:100B5000AA02842B952BA62BB72B8093A7029093E8
:100B6000A802A093A902B093AA0285E08093B002E4
:100B70009ECF843090F48EE790E0A0E0B0E08093C8
:100B8000A7029093A802A093A902B093AA0288E0BA
:100B90008093A6021092B0028ACF8091A702909112
:100BA000A802A091A902B091AA029927AA27BB275F
:100BB0009E678093A7029093A802A093A902B09386
:100BC000AA0280E1E5CF1092AC021092AB02109223
:100BD000B1021092A7021092A8021092A9021092DC
:100BE000AA021092A6021092B00228988091E40204
:100BF000882309F45CCF0E94750159CFC091AB02E4
:100C0000D091AC02CA30D10568F500939E02809164
:100C1000E402882339F080919F028F3F19F08F5FA3
:100C200080939F0220919E028091A7029091A8023A
:100C3000A091A902B091AA02022E04C0B695A79570
:100C4000979587950A94D2F78093A7029093A8026C
:100C5000A093A902B093AA028091A602821B80935E
:100C6000A60235CF8091E402882329F0AE0164E02A
:100C700088E00E948A0110924801D092D802C09266
:100C8000D70229E4A22E21E0B22E7E0122E0E21A50
:100C9000F108C501895491408E159F0578F4F5013E
:100CA00061905F0198E0792E862D817090E00E941E
:100CB000AE0066947A947110F7CFEBCF9091D70283
:100CC0008091D802F701E75BFE4F909520812913B0
:100CD00006C0C85BDE4F80959881981731F10E945D
:100CE000050228988091DC029091DD028F3F9807E1
:100CF00029F001969093DD028093DC0250E040E001
:100D000066E080E20E948A018091E402882321F05B
:100D10000E94750110939F021092AC021092AB02D8
:100D20001092AD021092A502F6CE8091DE02909153
:100D3000DF028F3F980729F001969093DF0280939E
:100D4000DE0250E040E065E080E10E948A010E94FE
:100D500024010C9760F12091460130914701C0E0D9
:100D6000D0E02115310569F050E040E0609142018A
:100D70007091430180914401909145010E94E409E2
:100D8000E90180EC0E9446018EE00E94460181E06C
:100D90000E944601809141010E947C018D2F0E949A
:100DA0007C018C2F0E947C0180EC0E9446010E94F5
:100DB0000502289889E4E82E81E0F82E8091AB02A4
:100DC0009091AC02029797012954314028173907B6
:100DD000E8F5F701C1917F0180914801813071F1FF
:100DE00080F08230D1F0C03C19F48BED0E944601B6
:100DF0008C2F0E944601CB3D09F78DED0E944601E4
:100E0000DDCF80EC0E94460180E00E9446018C2FDD
:100E10000E94460110934801D1CFC03F39F480EFC2
:100E20000E94460183E080934801C8CF8DE00E9474
:100E300046018AE00E944601289866CFC33099F6A1
:100E400083E00E94460190924801B8CF80EC0E9456
:100E500046018DE00E9446018AE00E94460154CF7F
:100E60008130C1F5C091AB02D091AC02FE01E75BCD
:100E7000FE4FF0828091E402882339F040919F0276
:100E800050E063E084E00E948A012196D093AC0296
:100E9000C093AB02C535D140C0F01092AD021092A4
:100EA000AC021092AB021092B1021092A702109203
:100EB000A8021092A9021092AA021092A602109201
:100EC000AF021092A502289893CC23E0F21223CE11
:100ED000289A21CE10939E02A5CE7894D3CBCF939F
:100EE000DF9300D0CDB7DEB7789484B5826084BD3F
:100EF00084B5816084BD85B5826085BD85B581601E
:100F000085BD80916E00816080936E00109281009B
:100F10008091810082608093810080918100816056
:100F20008093810080918000816080938000809117
:100F3000B10084608093B1008091B00081608093A3
:100F4000B00080917A00846080937A0080917A006A
:100F5000826080937A0080917A00816080937A0029
:100F600080917A00806880937A001092C10084B7E3
:100F70008093DB0214BE0FB6F894A89580916000B0
:100F8000886180936000109260000FBE88E199E252
:100F90000FB6F894A895809360000FBE9093600000
:100FA000F8941092C50087E68093C4008091C00039
:100FB00082608093C0008091C10088618093C100ED
:100FC0008091C20086608093C2008091C1008068D9
:100FD0008093C10080E480937C0080917C008062DB
:100FE00080937C0094E090937A0080917A008062F4
:100FF00080937A0010927B0080917E0081608093C4
:101000007E0080917A00806880937A0080917A00D7
:10101000806480937A001092800089E08093810040
:10102000109282002CEB34E03093890020938800EA
:1010300082E080936F001092B0009093B10081E045
:1010400087BB8FE384B985B115B80E94780083E12E
:1010500091E00E944E0285E391E00E944E02789456
:101060000E9478007E0122E0E20EF11CCE01019682
:101070005C0130E0C32E30E0D32E88248A94982C73
:101080006624639487E6282E9AE0392E2DEC422EB2
:101090008091130790911407009711F487E197E06E
:1010A000F701E81BF90B2091000130910101E217D3
:1010B000F30720F4F0930101E09300018BB1F4E019
:1010C0008F278BB92FB7F8944091080750910907E3
:1010D00080910607909107074817590709F441C006
:1010E00080910807909109070196843531E09307B4
:1010F00010F090E080E090930907809308078F54E8
:101100009A4FFC01708081E02FBF882309F446C00C
:101110008091E702803C09F0FCC0711025C010925C
:10112000DA022092D902F894809170008160809355
:101130007000309281004092B2006092B0057894C5
:101140009092D8028092D7021092D6021091D602C5
:10115000123378F48EE70E94C2001F5F1093D6020C
:10116000F5CF80E0712CD0CFFBE07F1265C060929C
:10117000E6027092E7022FB7F89480910B079091E6
:101180000C07A0910D07B0910E072FBF8093AC05FF
:101190009093AD05A093AE05B093AF058091B005D7
:1011A0008823F1F02FB7F89480910B0790910C07EA
:1011B000A0910D07B0910E072FBF4091AC05509143
:1011C000AD056091AE057091AF05841B950BA60B24
:1011D000B70B893E9340A105B10510F00E9425028E
:1011E0002FB7F8944091AA055091AB058091A805BE
:1011F0009091A9054817590709F4D9C08091AA050B
:101200009091AB050196803CF2E09F0710F090E0D2
:1012100080E09093AB058093AA0588519D4FFC0117
:10122000808191E02FBF992309F4C6C09091C0003E
:1012300095FDC0C0A895FACF2DE0721264C0009150
:101240001307109114070115110511F407E117E0B8
:101250005FB6F8940E942401829708F452C0C50139
:10126000801B910B8C0180EC0E9446018DE00E9456
:10127000460182E00E94460181E00E944601812FE2
:101280000E947C01802F0E947C01109100018091BE
:1012900001010E947C01812F0E947C018091E20269
:1012A0009091E302892F0E947C018091E20290914B
:1012B000E3020E947C018091E0029091E102892F7B
:1012C0000E947C018091E0029091E1020E947C01E9
:1012D0001091DE028091DF020E947C01812F0E942A
:1012E0007C011091DC028091DD020E947C01812F43
:1012F0000E947C018091DB020E947C0180EC0E94B4
:1013000046015FBE36CF9FE0791233CF6092E5028F
:1013100030CF9091E5029923B1F08091B005811111
:101320000FC0E0EC7E1661F081E0711001C080E03A
:10133000809302018091B005811102C00E941902C0
:101340001092E50216CF9091E602992371F0F0EC2D
:101350007F1641F081E0711001C080E08093E402CB
:101360000E9475011092E60204CF20EC721207C0B1
:101370008091B0058130A1F40E942502FACE3CEDA7
:10138000731207C08B3D09F0F4CE80EC0E94C200BE
:10139000F0CE9DED791204C08B3D09F0EACEF6CF78
:1013A0008091B005813009F0E4CE872DEFCF90E039
:1013B00080E038CF8093C600A895C114D10409F409
:1013C00067CE0E9400005CCEA1E21A2EAA1BBB1BB6
:1013D000FD010DC0AA1FBB1FEE1FFF1FA217B30701
:1013E000E407F50720F0A21BB30BE40BF50B661F17
:1013F000771F881F991F1A9469F7609570958095DB
:1014000090959B01AC01BD01CF010895EE0FFF1F28
:0C1410000590F491E02D0994F894FFCFB2
:10141C00FFFF013A162E1E3E1E2E16062A1222021F
:10142C0022122A41726475696E6F20544E432076E5
:10143C002E302E31352E313020446961676E6F733A
:0A144C0074696373000A0A0A0000C5
:00000001FF
