:100000000C9434000C9451000C9451000C94510049
:100010000C9451000C9451000C9451000C9451001C
:100020000C9451000C94D2020C9451000C94E002F8
:100030000C9451000C9451000C9451000C945100FC
:100040000C943F020C9451000C9489020C945100C2
:100050000C9451000C9451000C9451000C945100DC
:100060000C9451000C94510011241FBECFEFD8E026
:10007000DEBFCDBF11E0A0E0B1E0E4E5F3E102C0F6
:1000800005900D92A833B107D9F727E0A8E3B1E0B6
:1000900001C01D92A531B207E1F70E9419070C9427
:1000A000A8090C9400003FB7F89480910D07909137
:1000B0000E07A0910F07B091100726B5A89B05C0A9
:1000C0002F3F19F00196A11DB11D3FBFBA2FA92FD7
:1000D000982F8827BC01CD01620F711D811D911DD4
:1000E00042E0660F771F881F991F4A95D1F7089540
:1000F0008F929F92AF92BF92CF92DF92EF92FF9238
:100100000E9453004B015C0188EEC82E83E0D82E7C
:10011000E12CF12C0E945300681979098A099B0986
:10012000683E734081059105A8F321E0C21AD10809
:10013000E108F10888EE880E83E0981EA11CB11C2E
:10014000C114D104E104F10429F7FF90EF90DF908E
:10015000CF90BF90AF909F908F9008954091D5021F
:100160005091D6029A0136952795842780FD05C0C7
:100170003093D6022093D502089588E0282784E89A
:100180003827F6CF0F931F93CF93DF93182F8093C9
:10019000D3021092D202D1E002E38091D2028830E1
:1001A00008F04DC0C091D302C170C093D1021E3778
:1001B00001F5C11141C01092D0028091D70287365B
:1001C000B9F187E68093D7028091D30290E09595AC
:1001D00087958093D302D093CF020093B200809191
:1001E000CF028111FCCF8091D2028F5F8093D20227
:1001F000D4CF8C2F90E00E94AE00CC23E1F280910E
:10020000D0028F5F8093D0028530F1F6D093CF0279
:100210000093B2008091CF028111FCCF8091D70270
:10022000873641F488E38093D7021092D002CCCF76
:1002300088E3C8CF87E6F7CFD093D002C5CFDF9150
:10024000CF911F910F9108952091A6053091A70598
:100250002F5F3F4F203C92E0390710F030E020E064
:100260004091A8055091A9054217530781F4809148
:10027000DE029091DF020196A9F08091DE0290915A
:10028000DF0201969093DF028093DE02089530939F
:10029000A7052093A605E091A605F091A705EA51D0
:1002A000FD4F8083089510923C0110929F0210929E
:1002B0009D020895803C31F48BED0E9424018CED69
:1002C0000C9424018B3DE1F70E9424018DEDF8CFC1
:1002D000CF92DF92EF92FF920F931F93CF93DF9312
:1002E0009091E202992309F45FC090913C01982318
:1002F00009F05AC06130D9F190913C01892B80936B
:100300003C01613099F42FB7F894809109079091DE
:100310000A07A0910B07B0910C072FBF80933801FB
:1003200090933901A0933A01B0933B018091E2028E
:100330008823D1F1152FD42FC62F80EC0E942401E1
:100340008CE00E9424018C2F0E945A01812F0E9470
:100350005A018D2F0E945A0180ECDF91CF911F919D
:100360000F91FF90EF90DF90CF900C9424019FB7F6
:10037000F8940091090710910A0720910B0730911A
:100380000C079FBFC0903801D0903901E0903A012E
:10039000F0903B010C191D092E093F09003911404D
:1003A0002105310508F0A8CFDF91CF911F910F9162
:1003B000FF90EF90DF90CF9008951092400110923F
:1003C0004101109242011092430110924501109296
:1003D000440110923F0110923D0181E080933E0163
:1003E000089585B1817090910201911104C092E04D
:1003F000892B85B9089590E0FBCFCF938091D502EA
:10040000C091D602C095C093CE0280950E94C200D2
:100410008C2F0E94C2008EE70E94C2001092AE058F
:10042000F8940E94F10189E080938100E0E7F0E018
:1004300080818E7F80838CEB94E090938900809301
:10044000880078941092D802CF910895DC01FC01C5
:1004500001900020E9F73197E81BF90B9D01281B5B
:10046000390B2E173F0750F42D91222339F030918C
:10047000C00035FFFCCF2093C600E9CF08951F923E
:100480000F920FB60F9211242F933F938F939F9348
:10049000AF93BF938091090790910A07A0910B0732
:1004A000B0910C073091080723E0230F2D3758F542
:1004B0000196A11DB11D2093080780930907909311
:1004C0000A07A0930B07B0930C0780910D0790913A
:1004D0000E07A0910F07B09110070196A11DB11D45
:1004E00080930D0790930E07A0930F07B09310070A
:1004F000BF91AF919F918F913F912F910F900FBE20
:100500000F901F90189526E8230F0296A11DB11D8C
:10051000D2CF1F920F920FB60F9211242F933F93B9
:100520004F935F938F939F93EF93FF932091C60018
:1005300080910407909105070196843531E0930777
:1005400010F090E080E040910607509107074817AF
:100550005907E1F48091E0029091E102019649F09F
:100560008091E0029091E10201969093E1028093E4
:10057000E002FF91EF919F918F915F914F913F9199
:100580002F910F900FBE0F901F9018959093050715
:1005900080930407E0910407F0910507E155FA4FB5
:1005A0002083E7CF1F920F920FB60F921124109263
:1005B000CF021092B2000F900FBE0F901F901895AF
:1005C0001F920F920FB60F9211246F927F928F920B
:1005D0009F92AF92BF92CF92DF92EF92FF920F93D2
:1005E0001F932F933F934F935F936F937F938F93BB
:1005F0009F93AF93BF93CF93DF93EF93FF9380913C
:10060000AE058823C1F1E091D802EF5FEF70E0936F
:10061000D802F0E0ED5FFE4F8081909102019923B6
:1006200041F1826085B98091D70290E09093890072
:1006300080938800FF91EF91DF91CF91BF91AF91AF
:100640009F918F917F916F915F914F913F912F91EA
:100650001F910F91FF90EF90DF90CF90BF90AF90E0
:100660009F908F907F906F900F900FBE0F901F9074
:1006700018958D7FD7CF809179002091CC02309151
:10068000CD02280F311D3093CD022093CC029091E2
:10069000CB029F5F9093CB02903861F4220F232FFF
:1006A000221F330B2093CA021092CB021092CD026C
:1006B0001092CC029091CA02891B8093C902282F04
:1006C000082E000C330B90913E01992399F037FFCF
:1006D00003C031952195310990913F01921710F493
:1006E00020933F0190913D019F5F943008F09CC0A2
:1006F00090933D019091C8029F5F973009F4CAC062
:100700009093C802E091C802F0E0EE0FFF1FE8549A
:10071000FD4F2091C6023091C70240815181241BB8
:10072000350B4091B7028402A0011124518340830C
:10073000240F351F3093C7022093C602243631059B
:100740000CF4ABC091E09093B1029091B0029F5F26
:10075000993C08F0A9C09093B0021092AF0290911A
:10076000B6029093B7029091B5029093B602909121
:10077000B4029093B5029091B3029093B402909119
:10078000B2029093B3028093B2023091AE02909184
:10079000B1025091AC02332309F4B4C08091AD0290
:1007A0002FEF280F2093AD02951761F09093AC02C4
:1007B0001092B00238EF380F323008F077C0825014
:1007C0008093AD028091AD02811114C08BE08093C3
:1007D000AD028091A30221E0280F2093A302209173
:1007E000A202291739F08E5F8093AF021092A30204
:1007F0009093A202E091AF02EE2309F41BCFE150E7
:10080000E093AF02E150E73008F090C1F0E0E35F21
:10081000FB4F8091A4020C94A2090B05E004EA04AA
:100820004105440547056C0510923D0120914401A6
:10083000309145012F3F320709F45CCF8802A001B7
:10084000112470E060E0C0904001D0904101E09040
:100850004201F09043014A015B0180949094A0947E
:10086000B0948C149D04AE04BF0408F443CF4C0D27
:100870005D1D6E1D7F1D40934001509341016093AB
:100880004201709343012F5F3F4F30934501209306
:10089000440130CF1092C80235CF2D393F4F0CF0B4
:1008A00054CF1092B10251CF98EC55CF223008F4BA
:1008B00087CF8A50823008F085CF8091AB028F5F5E
:1008C000863018F48093AB027DCF1092AB02109269
:1008D000AA021092A9021092AE021092A5021092E2
:1008E000A6021092A7021092A8021092A4021092DF
:1008F000AD021092A3028091E20281110E94530185
:10090000289898CE4091B002842F8B3010F08B50F5
:10091000FCCF8093A10225E0240F61E0630F2C300F
:1009200018F02B50362FF9CF3093A3022093A0025A
:1009300095130BC08091E202882309F47BCE453BDE
:1009400008F478CE0E94530175CE9093AC021092B9
:10095000B00284508430B0F41092A5021092A60226
:100960001092A7021092A8021092A4028091E202B3
:1009700081110E94530128988091A3028F5F809378
:10098000AF0238CF8091E2028823B1F380919F02B9
:100990008F3F19F08F5F80939F02C0919F02C330F9
:1009A00058F350E040E061E081E00E946801C63009
:1009B00018F350E040E062E082E00E946801DCCF82
:1009C00021E030E0F90102C0EE0FFF1F8A95E2F747
:1009D000CF0109C023E030E0A90102C0440F551F38
:1009E0008A95E2F7CA01092E000CAA0BBB0B4091B5
:1009F000A5025091A6026091A7027091A802842BD3
:100A0000952BA62BB72B8093A5029093A602A093BB
:100A1000A702B093A8028091A4029091AF02890F1F
:100A20008093A40211E008E0CC24CA94DC2C42E0BC
:100A3000942E5FE0852E8091A402883008F4F7C1DF
:100A4000F090A502F0929E028091AE02FEE7FF12A6
:100A5000ACC1811186C01093AE020E94DD0180916D
:100A6000B1028093A2021092AB028092AD0210926A
:100A7000A3028091E202811110939D0200939C02D7
:100A800084C027E030E09ECF2FE030E0A5CF2FE1FB
:100A900030E0F90102C0EE0FFF1F8A95E2F7CF01A7
:100AA000092E000CAA0BBB0B4091A5025091A60287
:100AB0006091A7027091A802842B952BA62BB72BCF
:100AC0008093A5029093A602A093A702B093A802D8
:100AD00085E08093AF029FCF843090F48EE790E062
:100AE000A0E0B0E08093A5029093A602A093A70295
:100AF000B093A80288E08093A4021092AF028BCF3B
:100B00008091A5029091A602A091A702B091A8029F
:100B10009927AA27BB279E678093A5029093A602D8
:100B2000A093A702B093A80280E1E5CF1092AA0299
:100B30001092A9021092AE021092A5021092A60283
:100B40001092A7021092A8021092A4021092AF0273
:100B500028988091E202882309F45DCF0E94530116
:100B60005ACFC091A902D091AA02CA30D10568F526
:100B700000939C028091E202882339F080919D02CB
:100B80008F3F19F08F5F80939D0220919C0280918E
:100B9000A5029091A602A091A702B091A802022EF0
:100BA00004C0B695A795979587950A94D2F7809338
:100BB000A5029093A602A093A702B093A8028091E9
:100BC000A402821B8093A40236CF8091E202882384
:100BD00029F0AE0164E088E00E94680110924601AD
:100BE000D092D602C092D50227E4A22E21E0B22EE6
:100BF0007E0122E0E21AF108C501875491408E156A
:100C00009F0578F4F50161905F0198E0792E862DBB
:100C1000817090E00E94AE0066947A947110F7CFD4
:100C2000EBCF9091D5028091D602F701E95BFE4FA0
:100C300090952081291306C0CA5BDE4F809598816C
:100C4000981729F10E94DD018091DA029091DB0270
:100C50008F3F980729F001969093DB028093DA0288
:100C600050E040E066E080E20E9468018091E2028C
:100C7000882321F00E94530110939D021092AA0232
:100C80001092A9021092AB021092A302F7CE8091AB
:100C9000DC029091DD028F3F980729F00196909336
:100CA000DD028093DC0250E040E065E080E10E94DC
:100CB00068012091440130914501C0E0D0E0211548
:100CC000310569F050E040E06091400170914101D0
:100CD00080914201909143010E948009E90180ECDA
:100CE0000E9424018EE00E94240181E00E942401E0
:100CF00080913F010E945A018D2F0E945A018C2F32
:100D00000E945A0180EC0E9424010E94DD0187E4C8
:100D1000E82E81E0F82E8091A9029091AA02029714
:100D200097012754314028173907A8F5F701C191D9
:100D30007F0180914601813031F180F08230D1F025
:100D4000C03C19F48BED0E9424018C2F0E942401D9
:100D5000CB3D09F78DED0E942401DDCF80EC0E9490
:100D6000240180E00E9424018C2F0E942401109312
:100D70004601D1CFC03F91F480EF0E94240183E06F
:100D800080934601C8CFC330D9F683E00E94240186
:100D900090924601C0CF80EC0E9424018DE00E9419
:100DA00024018AE00E94240161CF8130E9F5C091DD
:100DB000A902D091AA02FE01E95BFE4FF082809168
:100DC000E202882339F040919D0250E063E084E024
:100DD0000E9468012196D093AA02C093A902C5354A
:100DE000D140E8F01092AB021092AA021092A90230
:100DF0001092AE021092A5021092A6021092A702C3
:100E00001092A8021092A4021092AD021092A302B6
:100E100028988091E202882309F40CCC93CD23E03A
:100E2000F2122CCE289A2ACE10939C02AECE789441
:100E300001CCCF93DF931F92CDB7DEB7789484B502
:100E4000826084BD84B5816084BD85B5826085BDC6
:100E500085B5816085BD80916E00816080936E0054
:100E60001092810080918100826080938100809146
:100E700081008160809381008091800081608093F7
:100E800080008091B10084608093B1008091B000B7
:100E900081608093B00080917A00846080937A00B2
:100EA00080917A00826080937A0080917A008160DC
:100EB00080937A0080917A00806880937A00109203
:100EC000C10084B78093D90214BE0FB6F894A895D8
:100ED00080916000886180936000109260000FBE76
:100EE00088E199E20FB6F894A895809360000FBE50
:100EF00090936000F8941092C50087E68093C40038
:100F00008091C00082608093C0008091C1008861A0
:100F10008093C1008091C20086608093C20080915E
:100F2000C10080688093C10080E480937C00809140
:100F30007C00806280937C0094E090937A008091A2
:100F40007A00806280937A0010927B0080917E000C
:100F5000816080937E0080917A00806880937A001F
:100F600080917A00806480937A001092800089E0FA
:100F700080938100109282002CEB34E03093890042
:100F80002093880082E080936F001092B0009093CD
:100F9000B10081E087BB8FE384B985B115B80E94A9
:100FA000780083E191E00E94260284E391E00E94B0
:100FB000260278940E9478009E012F5F3F4F7901AE
:100FC00040E0C42E40E0D42E01E0AA24AA94BA2C1A
:100FD00084E0782E97E6692E2AE0522E3DEC432ECF
:100FE0008091110790911207009711F485E197E025
:100FF000F701E81BF90B2091000130910101E21784
:10100000F30720F4F0930101E09300018BB18725F1
:101010008BB92FB7F894409106075091070780913C
:101020000407909105074817590709F442C08091B9
:1010300006079091070701968435F1E09F0710F0AD
:1010400090E080E0909307078093060781559A4FC0
:10105000FC01108181E02FBF882309F447C08091F3
:10106000E502803C09F0F6C0111126C01092D802AA
:101070006092D702F8948091700081608093700034
:10108000509281004092B2000093AE057894B092E5
:10109000D602A092D5021092D4029090D402F1E32D
:1010A000F91578F08EE70E94C20093949092D402D2
:1010B000F4CF80E010E0CFCF1B3009F065C0009383
:1010C000E4021093E5022FB7F894809109079091FC
:1010D0000A07A0910B07B0910C072FBF8093AA05B8
:1010E0009093AB05A093AC05B093AD058091AE0590
:1010F0008823F1F02FB7F8948091090790910A079F
:10110000A0910B07B0910C072FBF4091AA055091F9
:10111000AB056091AC057091AD05841B950BA60BDA
:10112000B70B893E9340A105B10510F00E94FD0167
:101130002FB7F8944091A8055091A9058091A60574
:101140009091A7054817590709F4CDC08091A805CB
:101150009091A9050196803C32E0930710F090E051
:1011600080E09093A9058093A8058A519D4FFC01CA
:10117000808191E02FBF992309F4BAC09091C000FB
:1011800095FDB4C0A895FACF1D3009F05DC08091DF
:10119000110790911207009711F485E197E047013C
:1011A000881A990A3FB6F89480EC0E9424018DE0D9
:1011B0000E94240182E00E94240181E00E94240117
:1011C000892D0E945A01882D0E945A019090000199
:1011D000809101010E945A01892D0E945A0180913B
:1011E000E0029091E102892F0E945A018091E00271
:1011F0009091E1020E945A018091DE029091DF02FB
:10120000892F0E945A018091DE029091DF020E9494
:101210005A019090DC028091DD020E945A01892DD2
:101220000E945A019090DA028091DB020E945A01DA
:10123000892D0E945A018091D9020E945A0180ECA6
:101240000E9424013FBE3DCF1F3009F03ACF0093EA
:10125000E30237CF9091E3029923A9F08091AE0584
:1012600081110EC0103C61F081E0111101C080E0DD
:10127000809302018091AE05811102C00E94F101AC
:101280001092E3021ECF9091E402992369F0103C82
:1012900041F081E0111101C080E08093E2020E94E0
:1012A00053011092E4020DCF103C39F48091AE0549
:1012B000813091F40E94FD0104CF1C3D39F48B3D37
:1012C00009F0FFCE80EC0E94C200FBCE1D3D21F450
:1012D0008B3D09F0F6CEF7CF8091AE05813009F055
:1012E000F0CE812FF0CF90E080E044CF8093C60015
:1012F000A895C114D10409F473CE0E94000068CEF1
:10130000A1E21A2EAA1BBB1BFD010DC0AA1FBB1F09
:10131000EE1FFF1FA217B307E407F50720F0A21B7B
:10132000B30BE40BF50B661F771F881F991F1A94E8
:1013300069F760957095809590959B01AC01BD0112
:10134000CF010895EE0FFF1F0590F491E02D099451
:04135000F894FFCF3F
:10135400FFFF013A162E1E3E1E2E16062A122202E8
:1013640022122A41726475696E6F20544E432076AE
:101374002E302E31352E3920446961676E6F7374B7
:08138400696373000A0A0A0004
:00000001FF
