:100000000C9434000C9451000C9451000C94510049
:100010000C9451000C9451000C9451000C9451001C
:100020000C9451000C945E030C9451000C946C03DE
:100030000C9451000C9451000C9451000C945100FC
:100040000C94CB020C9451000C9415030C945100A9
:100050000C9451000C9451000C9451000C945100DC
:100060000C9451000C94510011241FBECFEFD8E026
:10007000DEBFCDBF11E0A0E0B1E0EAEEF6E102C0E4
:1000800005900D92AA33B107D9F727E0AAE3B1E0B2
:1000900001C01D92AB33B207E1F70E9447080C94F0
:1000A000730B0C9400003FB7F89480913307909144
:1000B0003407A0913507B091360726B5A89B05C037
:1000C0002F3F19F00196A11DB11D3FBFBA2FA92FD7
:1000D000982F8827BC01CD01620F711D811D911DD4
:1000E00042E0660F771F881F991F4A95D1F7089540
:1000F0008F929F92AF92BF92CF92DF92EF92FF9238
:100100000E9453004B015C0188EEC82E83E0D82E7C
:10011000E12CF12C0E945300681979098A099B0986
:10012000683E734081059105A8F321E0C21AD10809
:10013000E108F10888EE880E83E0981EA11CB11C2E
:10014000C114D104E104F10429F7FF90EF90DF908E
:10015000CF90BF90AF909F908F9008954091E8020C
:100160005091E9029A0136952795842780FD05C0B4
:100170003093E9022093E802089588E0282784E874
:100180003827F6CF0F931F93CF93DF93182F8093C9
:10019000E6021092E502D1E002E38091E5028830A8
:1001A00008F04DC0C091E602C170C093E4021E3752
:1001B00001F5C11141C01092E3028091EA02873635
:1001C000B9F187E68093EA028091E60290E0959586
:1001D00087958093E602D093E2020093B20080916B
:1001E000E2028111FCCF8091E5028F5F8093E502EE
:1001F000D4CF8C2F90E00E94AE00CC23E1F280910E
:10020000E3028F5F8093E3028530F1F6D093E20240
:100210000093B2008091E2028111FCCF8091EA024A
:10022000873641F488E38093EA021092E302CCCF50
:1002300088E3C8CF87E6F7CFD093E302C5CFDF913D
:10024000CF911F910F9108952091CC053091CD054C
:100250008091CE059091CF052817390768F08091DD
:10026000CE059091CF052091CC053091CD058154DC
:100270009D4F821B930B08958091CE059091CF05E1
:100280002091CC053091CD050197F3CF2091CC057D
:100290003091CD052F5F3F4F203C92E0390710F0A1
:1002A00030E020E04091CE055091CF054217530732
:1002B00081F48091F1029091F2020196A9F080916F
:1002C000F1029091F20201969093F2028093F10272
:1002D00008953093CD052093CC05E091CC05F091A5
:1002E000CD05E45FFC4F80830895803C31F48BEDB5
:1002F0000E9446018CED0C9446018B3DE1F70E9473
:1003000046018DEDF8CF8091F502882341F0809170
:10031000DA02882321F010924D0110924C010895C9
:100320008091F502882309F485C08091DA02882340
:1003300009F480C080914C0190914D01843B91055E
:1003400008F078C08091E00290914B01891710F479
:1003500080934B0190914A01981710F480934A01C1
:10036000811131C080914701909148018F3F9807DA
:1003700029F00196909348018093470180914101B3
:10038000909142018F3F980729F001969093420186
:10039000809341018091DB02082E000C990B97FF9E
:1003A00003C0919581959109AC01209149012817CD
:1003B00010F48093490180913A018F5F843090F46A
:1003C00080933A0108958F3FC9F68091450190913D
:1003D00046018F3F980791F20196909346018093D2
:1003E0004501CCCF10923A01809143019091440194
:1003F0008F3F9807F9F0449FF001459FF00DF00DF5
:10040000112440913D0150913E0160913F01709156
:1004100040014E0F5F1F611D711D40933D015093C0
:100420003E0160933F017093400101969093440117
:100430008093430108958091F5028823C1F1809152
:10044000DA02811134C081E08093DA021092AF02A7
:100450001092AE021092B0021092AD028FEF809314
:100460004B0110924A0110924801109247011092DC
:1004700046011092450110924201109241011092E2
:100480004D0110924C0110924E0110923D011092BC
:100490003E0110923F0110924001109244011092CF
:1004A00043011092490110923A010C949001089571
:1004B0001092B0021092AD021092DA021092AF02C6
:1004C0001092AE0210924D0110924C0110924E010A
:1004D0000895109250011092510110925201109201
:1004E0005301109255011092540110924F01109235
:1004F0003B0181E080933C01089585B1817090912A
:100500000201911104C092E0892B85B9089590E011
:10051000FBCFCF938091E802C091E902C095C093D0
:10052000E10280950E94C2008C2F0E94C2008EE7DB
:100530000E94C2001092D405F8940E947D0289E0C6
:1005400080938100E0E7F0E080818E7F80838CEBF8
:1005500094E0909389008093880078941092EB0245
:10056000CF910895DC01FC0101900020E9F731975B
:10057000E81BF90B9D01281B390B2E173F0750F480
:100580002D91222339F03091C00035FFFCCF20930C
:10059000C600E9CF08951F920F920FB60F92112453
:1005A0002F933F938F939F93AF93BF9380912F0788
:1005B00090913007A0913107B091320730912E070A
:1005C00023E0230F2D3758F50196A11DB11D20936F
:1005D0002E0780932F0790933007A0933107B09395
:1005E00032078091330790913407A0913507B0917D
:1005F00036070196A11DB11D8093330790933407F0
:10060000A0933507B0933607BF91AF919F918F911B
:100610003F912F910F900FBE0F901F90189526E8D5
:10062000230F0296A11DB11DD2CF1F920F920FB6BC
:100630000F9211242F933F934F935F938F939F9328
:10064000EF93FF932091C60080912A0790912B078A
:100650000196843531E0930710F090E080E04091FE
:100660002C0750912D0748175907E1F48091F302A8
:100670009091F402019649F08091F3029091F40276
:1006800001969093F4028093F302FF91EF919F9172
:100690008F915F914F913F912F910F900FBE0F90CF
:1006A0001F90189590932B0780932A07E0912A07B3
:1006B000F0912B07EB52FA4F2083E7CF1F920F9256
:1006C0000FB60F9211241092E2021092B2000F9016
:1006D0000FBE0F901F9018951F920F920FB60F929A
:1006E00011246F927F928F929F92AF92BF92CF927E
:1006F000DF92EF92FF920F931F932F933F934F93AD
:100700005F936F937F938F939F93AF93BF93CF9399
:10071000DF93EF93FF938091D4058823C1F1E0919B
:10072000EB02EF5FEF70E093EB02F0E0ED5FFE4F66
:10073000808190910201992341F1826085B9809175
:10074000EA0290E09093890080938800FF91EF91F6
:10075000DF91CF91BF91AF919F918F917F916F91D9
:100760005F914F913F912F911F910F91FF90EF90CB
:10077000DF90CF90BF90AF909F908F907F906F90C1
:100780000F900FBE0F901F9018958D7FD7CFC091FF
:100790007900C093E0028091DE029091DF028C0F1D
:1007A000911D9093DF028093DE022091DD022F5F86
:1007B0002093DD02203861F4880F892F881F990B60
:1007C0008093DC021092DD021092DF021092DE02B2
:1007D000D091DC02CD1BC093DB028C2F0C2E000CC1
:1007E000990B20913C01222399F097FF03C091952A
:1007F0008195910920914F01281710F480934F01A2
:1008000080913B018F5F843008F091C080933B0161
:100810008091F5028823A1F18091DA02882381F189
:100820000E9490018091F502882351F180914C0142
:1008300090914D0180355AE0950728F401969093E8
:100840004D0180934C0180914C0190914D01803578
:100850009A40B0F08091F502882391F09091AF0218
:1008600091119BC08091AE02811197C08091AD0221
:10087000811193C080914E0181118FC00E94580256
:100880008091D9028F5F873009F4DBC08093D90251
:10089000E091D902F0E0EE0FFF1FE753FD4F80918A
:1008A000D7029091D80220813181821B930B209135
:1008B000C802C2029001112431832083820F931F4A
:1008C0009093D8028093D702843691050CF4BCC073
:1008D00081E08093C2028091C1028F5F893C08F061
:1008E000BAC08093C1029091C002992309F4B5C0A7
:1008F0008091C102843B08F4B0C01092BB021092F8
:10090000BA021092C0021092B6021092B702109270
:10091000B8021092B9021092B5021092BE02109263
:10092000B4021092BC0228980E9469020FCF109264
:100930003B0120915401309155012F3F320709F4BA
:1009400067CFCC02C0011124B0E0A0E0409150017B
:100950005091510160915201709153016C017D01E0
:10096000C094D094E094F094C416D506E606F70639
:1009700008F44ECF840F951FA61FB71F8093500118
:1009800090935101A0935201B09353012F5F3F4FB9
:1009900030935501209354013BCF80910B0381117B
:1009A0006DCF80914E01911181609091AE029111B5
:1009B000826080930A03D093090380914B01809356
:1009C000080380914A018093070380914901809335
:1009D00006038091AD0280930503809147019091B9
:1009E0004801909304038093030380914501909103
:1009F00046019093020380930103809143019091FB
:100A00004401909300038093FF02809141019091F3
:100A100042019093FE028093FD0280913D019091EE
:100A20003E01A0913F01B09140018093F902909363
:100A3000FA02A093FB02B093FC0281E080930B03C7
:100A40001DCF1092D90224CF8D399F4F0CF043CF88
:100A50001092C20240CF88EC44CF1092BF02809126
:100A6000C7028093C8028091C6028093C70280911A
:100A7000C5028093C6028091C4028093C502809112
:100A8000C3028093C402C093C302D091C2022091DA
:100A9000BD02992309F458C0C091BE021FEF1C0F7C
:100AA0001093BE02D21781F0D093BD028091F5025F
:100AB00081110E9483011092C10288EF8C0F823055
:100AC000A8F5C250C093BE028091BE02811114C02D
:100AD0008BE08093BE028091B40291E0980F9093D6
:100AE000B4029091B3029D1739F08E5F8093BF02DC
:100AF0001092B402D093B302E091BF02EE2309F446
:100B000025CEE150E093BF02E150E73008F031C15B
:100B1000F0E0E157FA4F8091B5020C946D0B1E0680
:100B2000F305FD05640667066A068F06123050F26B
:100B3000CA50C23048F68091BC028F5F863008F000
:100B400084C28093BC02C0CF8091C102C82FCB3039
:100B500010F0CB50FCCFC093B2028B5F31E0390F65
:100B60008C3018F08B50932FF9CF9093B402809370
:100B7000B102D21709F4EACD8091F502882321F061
:100B80000E941B020E948301D093BD021092C102F9
:100B9000C450C43088F41092B6021092B70210927A
:100BA000B8021092B9021092B50228988091B4024E
:100BB0008F5F8093BF02A0CF8091F5028823B1F3AD
:100BC0008091B0028F3F19F08F5F8093B0029091B7
:100BD000B002933058F381E08093AF02963030F347
:100BE0008093AE02E3CF21E030E0A90102C0440FC0
:100BF000551F8A95E2F7CA0109C023E030E0F901E8
:100C000002C0EE0FFF1F8A95E2F7CF01092E000CFC
:100C1000AA0BBB0B4091B6025091B7026091B8028B
:100C20007091B902842B952BA62BB72B8093B6021B
:100C30009093B702A093B802B093B9028091B50225
:100C40009091BF02890F8093B502C1E098E0B92E60
:100C5000CC24CA94DC2C32E0A32E4FE0742E809179
:100C6000B502883008F411C22091B6028091C0020A
:100C70002E3709F0D8C1811190C08091F5028823E8
:100C800031F00E941B02C093AF02C093AE02C0932A
:100C9000C00228980E9469028091C2028093B30228
:100CA0001092BC027092BE021092B4028091F502C2
:100CB000882339F08091AD028F3F19F08F5F8093C8
:100CC000AD02B092AC0283C027E030E08ECF2FE0BF
:100CD00030E095CF2FE130E0A90102C0440F551F4D
:100CE0008A95E2F7CA01092E000CAA0BBB0B4091B2
:100CF000B6025091B7026091B8027091B902842B8C
:100D0000952BA62BB72B8093B6029093B702A09396
:100D1000B802B093B90285E08093BF028FCF8430D0
:100D200090F48EE790E0A0E0B0E08093B60290935C
:100D3000B702A093B802B093B90288E08093B502DD
:100D40001092BF027BCF8091B6029091B702A09122
:100D5000B802B091B9029927AA27BB279E67809352
:100D6000B6029093B702A093B802B093B90280E1A3
:100D7000E5CF1092BB021092BA021092C0021092FC
:100D8000B6021092B7021092B8021092B9021092F5
:100D9000B5021092BF02289851CF0091BA0210916B
:100DA000BB020A30110598F5B092AC028091F502B1
:100DB000882369F00E941B02C093AF02C093AE0269
:100DC0008091AD028F3F19F08F5F8093AD0220912B
:100DD000AC028091B6029091B702A091B802B09196
:100DE000B902022E04C0B695A795979587950A94E7
:100DF000D2F78093B6029093B702A093B802B09353
:100E0000B9028091B502821B8093B50228CF10925F
:100E10005601D092E902C092E80287E5882E81E06F
:100E2000982E780152E0E51AF108C40187559140E7
:100E30008E159F0568F4F40161904F01D8E0862D6E
:100E4000817090E00E94AE006694D150C1F7EDCF62
:100E50009091E8028091E902F701E95AFE4F9095DE
:100E60002081291307C0F801EA5AFE4F809590812E
:100E70009817A1F18091F502882369F08091F5021D
:100E8000882349F08091DA02882329F080914E016D
:100E9000886080934E010E94690228988091ED023B
:100EA0009091EE028F3F980729F001969093EE0201
:100EB0008093ED028091F502882339F08091AD0294
:100EC0008F3F19F08F5F8093AD021092BB0210929A
:100ED000BA021092BC021092B402F3CE8091EF02DB
:100EE0009091F0028F3F980729F001969093F002BD
:100EF0008093EF028091F502882369F08091F502DA
:100F0000882349F08091DA02882329F080914E01EC
:100F1000846080934E010E9424010C9768F1209117
:100F2000540130915501D0E010E02115310571F0E8
:100F300050E040E060915001709151018091520168
:100F4000909153010E944B0BD22F132F80EC0E94E3
:100F500046018EE00E94460181E00E944601809198
:100F60004F010E947501812F0E9475018D2F0E94F3
:100F7000750180EC0E9446010E946902289807E5ED
:100F800011E08091BA029091BB0202979801275517
:100F9000314028173907E8F5F801D1918F01809188
:100FA0005601813071F180F08230D1F0D03C19F4DB
:100FB0008BED0E9446018D2F0E944601DB3D09F713
:100FC0008DED0E944601DDCF80EC0E94460180E05D
:100FD0000E9446018D2F0E944601C0935601D1CF39
:100FE000D03F39F480EF0E94460183E080935601A0
:100FF000C8CF8DE00E9446018AE00E9446012898F1
:1010000059CFD33099F683E00E944601A092560151
:10101000B8CF80EC0E9446018DE00E9446018AE034
:101020000E94460147CF813069F58091BA029091C4
:10103000BB02FC01E95AFE4F208301969093BB024C
:101040008093BA0285359140C0F01092BC02109294
:10105000BB021092BA021092C0021092B602109215
:10106000B7021092B8021092B9021092B502109213
:10107000BE021092B402289869CB233009F021CE29
:10108000289A1FCEC093AC02A2CE78945FCBCF93A8
:10109000DF9300D000D000D0CDB7DEB7789484B510
:1010A000826084BD84B5816084BD85B5826085BD64
:1010B00085B5816085BD80916E00816080936E00F2
:1010C00010928100809181008260809381008091E4
:1010D0008100816080938100809180008160809395
:1010E00080008091B10084608093B1008091B00055
:1010F00081608093B00080917A00846080937A0050
:1011000080917A00826080937A0080917A00816079
:1011100080937A0080917A00806880937A001092A0
:10112000C10084B78093EC0214BE0FB6F894A89562
:1011300080916000886180936000109260000FBE13
:1011400088E199E20FB6F894A895809360000FBEED
:1011500090936000F8941092C50087E68093C400D5
:101160008091C00082608093C0008091C10088613E
:101170008093C1008091C20086608093C2008091FC
:10118000C10080688093C10080E480937C008091DE
:101190007C00806280937C0094E090937A00809140
:1011A0007A00806280937A0010927B0080917E00AA
:1011B000816080937E0080917A00806880937A00BD
:1011C00080917A00806480937A001092800089E098
:1011D00080938100109282002CEB34E030938900E0
:1011E0002093880082E080936F001092B00090936B
:1011F000B10081E087BB8FE384B985B115B80E9447
:10120000780083E191E00E94B20285E391E00E94C0
:10121000B20278940E9478005E0122E0A20EB11C16
:10122000CE0101969C838B83FF24F3948091370732
:1012300090913807009711F48BE397E0F501E81BD4
:10124000F90B2091000130910101E217F30720F41E
:10125000F0930101E09300018BB1F4E08F278BB98B
:101260002FB7F89440912C0750912D0780912A07B1
:1012700090912B074817590709F446C080912C0715
:1012800090912D070196843531E0930710F090E09E
:1012900080E090932D0780932C078B529A4FFC018E
:1012A000E08081E02FBF882309F44BC08091F802D1
:1012B000803C09F041C1E1102AC01092EB02F7E630
:1012C000F093EA02F894809170008160809370003E
:1012D0002AE0209381003DEC3093B200F092D405D7
:1012E00078948FEF9FEF9093E9028093E802109239
:1012F000E7021091E702123378F48EE70E94C200F1
:101300001F5F1093E702F5CF80E0E12CCBCF9BE08D
:10131000E91299C0F092F702E092F8022FB7F89420
:1013200080912F0790913007A0913107B09132073B
:101330002FBF8093D0059093D105A093D205B09391
:10134000D30580910B03882309F44BC14FB7F89460
:1013500080910B03882309F443C120900A03309045
:1013600009034090080350900703609006037090B3
:101370000503C0900303D090040380910103909172
:1013800002039E838D832091FF02309100038090A1
:10139000FD029090FE026091F9027091FA02809134
:1013A000FB029091FC024FBF10E000E021153105D7
:1013B00031F050E040E00E944B0B122F032FEFB6AC
:1013C000F89480910B038823E1F10E942401849713
:1013D000C0F180EC0E94460180E10E94460183E05A
:1013E0000E944601822D0E947501832D0E94750185
:1013F000842D0E947501852D0E947501862D0E9405
:101400007501802F0E947501812F0E9475018D2D1D
:101410000E9475018C2D0E9475018E810E947501BC
:101420008D810E947501872D0E947501892D0E9472
:101430007501882D0E94750180EC0E944601109272
:101440000B03EFBECEC0EDE0EE1270C00091370787
:10145000109138070115110511F40BE317E0DFB601
:10146000F8940E942401829708F45EC02B813C818D
:10147000201B310B890180910001909101012817F7
:10148000390720F4309301012093000180EC0E9481
:1014900046018DE00E94460182E00E94460181E003
:1014A0000E944601812F0E947501802F0E947501C4
:1014B00010910001809101010E947501812F0E940D
:1014C00075018091F3029091F402892F0E947501B9
:1014D0008091F3029091F4020E9475018091F102D3
:1014E0009091F202892F0E9475018091F1029091F2
:1014F000F2020E9475011091EF028091F0020E94A9
:101500007501812F0E9475011091ED028091EE020C
:101510000E947501812F0E9475018091EC020E944A
:10152000750180EC0E944601DFBEF6CE3FE0E3127B
:10153000F3CEF092F602F0CE9091F6029923B1F03C
:101540008091D40581110FC080ECE81661F081E034
:10155000E11001C080E0809302018091D4058111E7
:1015600002C00E947D021092F602D6CE9091F70240
:101570009923A1F090ECE91671F081E0E11001C02F
:1015800080E08093F5020E9458028091F50281115B
:1015900002C010920B031092F702BECEE0ECEE12E6
:1015A00007C08091D4058130A1F40E948902B4CE95
:1015B000FCEDEF1207C08B3D09F0AECE80EC0E942F
:1015C000C200AACE2DEDE21204C08B3D09F0A4CEDC
:1015D000F6CF8091D405813009F09ECE8E2DEFCFCD
:1015E0004FBF8091D4058823F1F02FB7F8948091F4
:1015F0002F0790913007A0913107B09132072FBF8C
:101600004091D0055091D1056091D2057091D305DC
:10161000841B950BA60BB70B893E9340A105B10522
:1016200010F00E9489022FB7F8944091CE05509196
:10163000CF058091CC059091CD0548175907E9F069
:101640008091CE059091CF050196803CF2E09F07F6
:1016500010F090E080E09093CF058093CE05845FFA
:101660009C4FFC01808191E02FBF992359F090910C
:10167000C00095FD05C0A895FACF90E080E0F4CFBA
:101680008093C600A89520E030E0232B09F4CECD4E
:101690000E940000C9CDA1E21A2EAA1BBB1BFD01AE
:1016A0000DC0AA1FBB1FEE1FFF1FA217B307E40741
:1016B000F50720F0A21BB30BE40BF50B661F771F99
:1016C000881F991F1A9469F7609570958095909579
:1016D0009B01AC01BD01CF010895EE0FFF1F0590E6
:0A16E000F491E02D0994F894FFCF77
:1016EA00FFFF013A162E1E3E1E2E16062A1222024F
:1016FA0022122A41726475696E6F20544E43207615
:10170A002E302E31352E313420446961676E6F7365
:0A171A0074696373000A0A0A0000F4
:00000001FF
