:100000000C9434000C9451000C9451000C94510049
:100010000C9451000C9451000C9451000C9451001C
:100020000C9451000C9418020C9451000C9426026C
:100030000C9451000C9451000C9451000C945100FC
:100040000C94A1010C9451000C94EB010C94510000
:100050000C9451000C9451000C9451000C945100DC
:100060000C9451000C94510011241FBECFEFD8E026
:10007000DEBFCDBF11E0A0E0B1E0E4EDFEE002C0E4
:1000800005900D92A233B107D9F726E0A2E3B1E0C3
:1000900001C01D92A73FB207E1F70E94AB050C9487
:1000A00068070C9400003FB7F8948091F306909194
:1000B000F406A091F506B091F60626B5A89B05C0FA
:1000C0002F3F19F00196A11DB11D3FBFBA2FA92FD7
:1000D000982F8827BC01CD01620F711D811D911DD4
:1000E00042E0660F771F881F991F4A95D1F7089540
:1000F0008F929F92AF92BF92CF92DF92EF92FF9238
:100100000E9453004B015C0188EEC82E83E0D82E7C
:10011000E12CF12C0E945300681979098A099B0986
:10012000683E734081059105A8F321E0C21AD10809
:10013000E108F10888EE880E83E0981EA11CB11C2E
:10014000C114D104E104F10429F7FF90EF90DF908E
:10015000CF90BF90AF909F908F9008954091C7022D
:100160005091C8029A0136952795842780FD05C0D5
:100170003093C8022093C702089588E0282784E8B6
:100180003827F6CF0F931F93CF93DF93182F8093C9
:10019000C5021092C402D1E002E38091C40288300B
:1001A00008F04DC0C091C502C170C093C3021E3794
:1001B00001F5C11141C01092C2028091C902873677
:1001C000B9F187E68093C9028091C50290E09595C8
:1001D00087958093C502D093C1020093B2008091AD
:1001E000C1028111FCCF8091C4028F5F8093C40251
:1001F000D4CF8C2F90E00E94AE00CC23E1F280910E
:10020000C2028F5F8093C2028530F1F6D093C102A3
:100210000093B2008091C1028111FCCF8091C9028C
:10022000873641F488E38093C9021092C202CCCF92
:1002300088E3C8CF87E6F7CFD093C202C5CFDF915E
:10024000CF911F910F910895CF938091C702C091D4
:10025000C802C095C093C00280950E94C2008C2F36
:100260000E94C2008EE70E94C20010929405F8948A
:1002700085B115B889E080938100E0E7F0E08081E6
:100280008E7F80838CEB94E090938900809388002C
:1002900078941092CA02CF91089520918C053091E4
:1002A0008D052F5F3F4F30938D0520938C05203CAB
:1002B000324020F010928D0510928C05E0918C0553
:1002C000F0918D05E453FD4F80830895803C31F417
:1002D0008BED0E944D018CED0C944D018B3DE1F7AF
:1002E0000E944D018DEDF8CF10923501109236012C
:1002F000109237011092380110923A011092390190
:10030000109234011092320181E0809333010895FC
:10031000DC01FC0101900020E9F73197E81BF90BA3
:100320009D01281B390B2E173F0750F42D912223D6
:1003300039F03091C00035FFFCCF2093C600E9CFE3
:1003400008951F920F920FB60F9211242F933F938F
:100350008F939F93AF93BF938091EF069091F00698
:10036000A091F106B091F2063091EE0623E0230F42
:100370002D3758F50196A11DB11D2093EE068093EF
:10038000EF069093F006A093F106B093F2068091E9
:10039000F3069091F406A091F506B091F606019649
:1003A000A11DB11D8093F3069093F406A093F5066A
:1003B000B093F606BF91AF919F918F913F912F918E
:1003C0000F900FBE0F901F90189526E8230F0296EE
:1003D000A11DB11DD2CF1F920F920FB60F92112403
:1003E0002F938F939F93EF93FF938091EA069091C1
:1003F000EB0601969093EB068093EA0684359140D4
:1004000020F01092EB061092EA06E091EA06F091D5
:10041000EB068091C600EB56FA4F8083FF91EF9177
:100420009F918F912F910F900FBE0F901F90189555
:100430001F920F920FB60F9211241092C1021092C8
:10044000B2000F900FBE0F901F9018951F920F9241
:100450000FB60F9211246F927F928F929F92AF925C
:10046000BF92CF92DF92EF92FF920F931F932F9341
:100470003F934F935F936F937F938F939F93AF932C
:10048000BF93CF93DF93EF93FF93809194058823DD
:1004900089F1E091CA02EF5FEF70E093CA02F0E0E9
:1004A000E050FF4F808185B98091C90290E0909320
:1004B000890080938800FF91EF91DF91CF91BF91E8
:1004C000AF919F918F917F916F915F914F913F91EC
:1004D0002F911F910F91FF90EF90DF90CF90BF90E1
:1004E000AF909F908F907F906F900F900FBE0F9066
:1004F0001F901895809179002091BE023091BF0223
:10050000280F311D3093BF022093BE029091BD028F
:100510009F5F9093BD02903861F4220F232F221F1A
:10052000330B2093BC021092BD021092BF021092B6
:10053000BE029091BC02891B8093BB02282F082E1B
:10054000000C330B90913301992399F037FF03C0CE
:1005500031952195310990913401921710F420932F
:100560003401909132019F5F943008F09CC09093C9
:1005700032019091BA029F5F973009F4CAC09093FC
:10058000BA02E091BA02F0E0EE0FFF1FE655FD4F10
:100590002091B8023091B90240815181241B350B62
:1005A0004091A9028402A001112451834083240FA9
:1005B000351F3093B9022093B802243631050CF46C
:1005C000ABC091E09093A3029091A2029F5F993CEF
:1005D00008F0A9C09093A2021092A1029091A802E3
:1005E0009093A9029091A7029093A8029091A602DD
:1005F0009093A7029091A5029093A6029091A402D5
:100600009093A5028093A4023091A0022091A302AE
:1006100040919E02332309F498C080919F029FEF7E
:10062000980F90939F02241761F020939E021092DE
:10063000A20238EF380F323008F077C08250809332
:100640009F0280919F02811114C08BE080939F02D2
:100650008091950291E0980F909395029091940269
:10066000921739F08E5F8093A10210929502209329
:100670009402E091A102EE2309F41DCFE150E09332
:10068000A102E150E73008F03FC1F0E0E45BFC4F2D
:10069000809196020C9462070004D503DF032F04B7
:1006A000320435045A0410923201209139013091FC
:1006B0003A012F3F320709F45CCF8802A0011124D0
:1006C00070E060E0C0903501D0903601E0903701D5
:1006D000F09038014A015B0180949094A094B0940A
:1006E0008C149D04AE04BF0408F443CF4C0D5D1D73
:1006F0006E1D7F1D40933501509336016093370185
:10070000709338012F5F3F4F30933A0120933901A6
:1007100030CF1092BA0235CF2D393F4F0CF054CF65
:100720001092A30251CF98EC55CF923008F487CFA6
:100730008A50823008F085CF80919D028F5F86308D
:1007400008F0E7C180939D027CCF9091A202892F8F
:100750008B3010F08B50FCCF809393029B5F51E065
:10076000530F9C3018F09B50352FF9CF30939502E2
:1007700090939202241709F49ECE20939E02109229
:10078000A2028450843058F410929702109298027A
:100790001092990210929A021092960228988091D3
:1007A00095028F5F8093A10264CF21E030E0F901D0
:1007B00002C0EE0FFF1F8A95E2F7CF0109C023E0C8
:1007C00030E0A90102C0440F551F8A95E2F7CA0123
:1007D000092E000CAA0BBB0B409197025091980276
:1007E0006091990270919A02842B952BA62BB72BBE
:1007F0008093970290939802A0939902B0939A02E3
:10080000809196029091A102890F80939602FF2415
:10081000F39428E0E22ECC24CA94DC2C42E0942EFF
:100820005FE0852E80919602883008F492C1209175
:1008300097028091A0022E3709F059C1811178C02A
:10084000F092A0020E9474018091A302809394020E
:1008500010929D0280929F021092950270C027E034
:1008600030E0A5CF2FE030E0ACCF2FE130E0F90150
:1008700002C0EE0FFF1F8A95E2F7CF01092E000C90
:10088000AA0BBB0B4091970250919802609199027C
:1008900070919A02842B952BA62BB72B80939702ED
:1008A00090939802A0939902B0939A0285E0809366
:1008B000A102A6CF843090F48EE790E0A0E0B0E0F3
:1008C0008093970290939802A0939902B0939A0212
:1008D00088E0809396021092A10292CF80919702B5
:1008E00090919802A0919902B0919A029927AA2713
:1008F000BB279E678093970290939802A0939902DA
:10090000B0939A0280E1E5CF10929C0210929B0274
:100910001092A002109297021092980210929902DF
:1009200010929A02109296021092A102289868CF13
:10093000C0919B02D0919C02CA30D10510F5E09283
:100940009102209191028091970290919802A0913A
:100950009902B0919A02022E04C0B695A795979578
:1009600087950A94D2F78093970290939802A09368
:100970009902B0939A0280919602821B809396020C
:1009800051CF10923B01D092C802C092C7029CE3A3
:10099000A92E91E0B92E8E0102501109C5018C5388
:1009A00091408017910778F4F50161905F0188E02C
:1009B000782E862D817090E00E94AE0066947A9425
:1009C0007110F7CFEBCF9091C7028091C802F80168
:1009D000E45CFE4F90952081291306C0C55CDE4F74
:1009E00080959881981749F00E94740110929C029A
:1009F00010929B0210929D022FCF209139013091CD
:100A00003A01C0E0D0E02115310569F050E040E046
:100A100060913501709136018091370190913801D4
:100A20000E944007E90180EC0E944D018EE00E9487
:100A30004D0181E00E944D01809134010E946601C8
:100A40008D2F0E9466018C2F0E94660180EC0E940F
:100A50004D010E9474010CE311E080919B02909182
:100A60009C02029798012C53314028173907A8F5AA
:100A7000F801C1918F0180913B01813031F180F00B
:100A80008230D1F0C03C19F48BED0E944D018C2FC7
:100A90000E944D01CB3D09F78DED0E944D01DDCF48
:100AA00080EC0E944D0180E00E944D018C2F0E943D
:100AB0004D01F0923B01D1CFC03F91F480EF0E94F5
:100AC0004D0183E080933B01C8CFC330D9F683E06A
:100AD0000E944D0190923B01C0CF80EC0E944D01DD
:100AE0008DE00E944D018AE00E944D017FCF813050
:100AF00069F580919B0290919C02FC01E45CFE4FA1
:100B00002083019690939C0280939B0285359140AF
:100B1000C0F010929D0210929C0210929B021092C3
:100B2000A0021092970210929802109299021092CD
:100B30009A021092960210929F02109295022898A3
:100B4000BACC233009F0FBCE289AF9CEF09291026C
:100B5000F8CE7894B0CC789484B5826084BD84B5A6
:100B6000816084BD85B5826085BD85B5816085BDA8
:100B700080916E00816080936E0010928100809160
:100B800081008260809381008091810081608093E8
:100B90008100809180008160809380008091B1000D
:100BA00084608093B1008091B00081608093B00038
:100BB00080917A00846080937A0080917A008260CC
:100BC00080937A0080917A00816080937A0080918E
:100BD0007A00806880937A001092C10088E199E2DF
:100BE0000FB6F894A895809360000FBE90936000B4
:100BF000F8941092C50087E68093C4008091C000ED
:100C000082608093C0008091C10088618093C100A0
:100C10008091C20086608093C2008091C10080688C
:100C20008093C10080E480937C0080917C0080628E
:100C300080937C0094E090937A0080917A008062A7
:100C400080937A0010927B0080917E008160809377
:100C50007E0080917A00806880937A0080917A008B
:100C6000806480937A001092800089E080938100F4
:100C7000109282002CEB34E030938900209388009E
:100C800082E080936F001092B0009093B10081E0F9
:100C900087BB8FE384B985B115B80E94780080E1E5
:100CA00091E00E9488018EE291E00E948801789490
:100CB0000E94780084E0D82E9AE0C92E2DECB22E46
:100CC00000E010E037E6A32E99249394EE24EA94F2
:100CD000FE2C8BB18D258BB92091EC063091ED0661
:100CE0008091EA069091EB062817390709F45EC057
:100CF0008091EC069091ED0601969093ED0680931D
:100D0000EC068435914020F01092ED061092EC062E
:100D1000E091EC06F091ED06EB56FA4FC081809120
:100D2000CB02803C21F5C1112CC01092CA02A092C6
:100D3000C902F89480917000816080937000C09225
:100D40008100B092B200909294057894F092C8021B
:100D5000E092C7021092C602D091C602D23388F444
:100D60008EE70E94C200DF5FD093C602F5CFC03C81
:100D700009F05FC080919405813009F069C00E943C
:100D80002401C093CB022FB7F8948091EF06909185
:100D9000F006A091F106B091F2062FBF8093900566
:100DA00090939105A0939205B0939305809194053B
:100DB0008823F1F02FB7F8948091EF069091F00618
:100DC000A091F106B091F2062FBF4091900550918D
:100DD00091056091920570919305841B950BA60B6C
:100DE000B70B893E9340A105B10510F00E94240184
:100DF00020918E0530918F0580918C0590918D0505
:100E000028173907A9F180918E0590918F050196D9
:100E100090938F0580938E05803C924020F0109235
:100E20008F0510928E058091C00085FD18C0A89591
:100E3000FACFCC3D39F48B3D09F0A3CF80EC0E9472
:100E4000C2009FCFCD3D21F48B3D09F09ACFF7CF63
:100E500080919405813009F094CF8C2FF0CFE091F0
:100E60008E05F0918F05E453FD4F80818093C6007D
:100E7000A8950115110509F42CCF0E94000029CF77
:100E8000A1E21A2EAA1BBB1BFD010DC0AA1FBB1F8E
:100E9000EE1FFF1FA217B307E407F50720F0A21B00
:100EA000B30BE40BF50B661F771F881F991F1A946D
:100EB00069F760957095809590959B01AC01BD0197
:100EC000CF010895EE0FFF1F0590F491E02D0994D6
:040ED000F894FFCFC4
:100ED4003A162E1E3E1E2E16062A12220222122A0E
:100EE40041726475696E6F20544E4320762E302E05
:100EF40031352E362052582D4C6576656C000A0A21
:020F04000A00E1
:00000001FF
