:100000000C9434000C9451000C9451000C94510049
:100010000C9451000C9451000C9451000C9451001C
:100020000C9451000C9458030C9451000C946603EA
:100030000C9451000C9451000C9451000C945100FC
:100040000C94C5020C9451000C940F030C945100B5
:100050000C9451000C9451000C9451000C945100DC
:100060000C9451000C94510011241FBECFEFD8E026
:10007000DEBFCDBF11E0A0E0B1E0EEE7F6E102C0E7
:1000800005900D92AA33B107D9F727E0AAE3B1E0B2
:1000900001C01D92A133B207E1F70E941E080C9423
:1000A0003D0B0C9400003FB7F89480912907909184
:1000B0002A07A0912B07B0912C0726B5A89B05C055
:1000C0002F3F19F00196A11DB11D3FBFBA2FA92FD7
:1000D000982F8827BC01CD01620F711D811D911DD4
:1000E00042E0660F771F881F991F4A95D1F7089540
:1000F0008F929F92AF92BF92CF92DF92EF92FF9238
:100100000E9453004B015C0188EEC82E83E0D82E7C
:10011000E12CF12C0E945300681979098A099B0986
:10012000683E734081059105A8F321E0C21AD10809
:10013000E108F10888EE880E83E0981EA11CB11C2E
:10014000C114D104E104F10429F7FF90EF90DF908E
:10015000CF90BF90AF909F908F9008959091ED02B7
:10016000992341F09091DE02282F292319F4892B3D
:100170008093DE0208954091E0025091E1029A01DD
:1001800036952795842780FD05C03093E1022093A2
:10019000E002089588E0282784E83827F6CF0F93F7
:1001A0001F93CF93DF93182F8093DD021092DC0210
:1001B000D1E002E38091DC02883008F04DC0C091AC
:1001C000DD02C170C093DB021E3701F5C11141C0D1
:1001D0001092DA028091E2028736B9F187E68093C5
:1001E000E2028091DD0290E0959587958093DD0293
:1001F000D093D9020093B2008091D9028111FCCF33
:100200008091DC028F5F8093DC02D4CF8C2F90E052
:100210000E94BB00CC23E1F28091DA028F5F8093D1
:10022000DA028530F1F6D093D9020093B2008091C2
:10023000D9028111FCCF8091E202873641F488E334
:100240008093E2021092DA02CCCF88E3C8CF87E62F
:10025000F7CFD093DA02C5CFDF91CF911F910F91E5
:1002600008952091C2053091C3058091C4059091F5
:10027000C5052817390768F08091C4059091C50518
:100280002091C2053091C30581549D4F821B930B71
:1002900008958091C4059091C5052091C2053091C3
:1002A000C3050197F3CF2091C2053091C3052F5F9D
:1002B0003F4F203C92E0390710F030E020E04091C1
:1002C000C4055091C5054217530781F48091E90296
:1002D0009091EA020196A9F08091E9029091EA02D8
:1002E00001969093EA028093E90208953093C30542
:1002F0002093C205E091C205F091C305EE5FFC4F6B
:10030000808308951092DE021092A8021092A50236
:10031000109246011092A7021092A6020895803C06
:1003200031F48BED0E9453018CED0C9453018B3D05
:10033000E1F70E9453018DEDF8CFCF92DF92EF925B
:10034000FF920F931F939091ED02992309F481C0BE
:1003500090914601992309F47CC09FB7F89440918D
:1003600025075091260760912707709128079FBFA6
:100370009091010391116DC000913A0110913B01E0
:1003800020913C0130913D016A017B01C01AD10AE4
:10039000E20AF30A97018601043F11402105310565
:1003A00008F457C091E02091A702211101C090E00C
:1003B0002091A60221119260813009F051C0946011
:1003C000909300038091D3028093FF0280914501B6
:1003D0008093FE02809144018093FD028091470149
:1003E0008093FC028091A5028093FB0280914201E0
:1003F000909143019093FA028093F9028091400119
:10040000909141019093F8028093F70280914C0102
:1004100090914D019093F6028093F50280914801EE
:1004200090914901A0914A01B0914B018093F10252
:100430009093F202A093F302B093F40281E08093D0
:10044000010340933A0150933B0160933C01709348
:100450003D011F910F91FF90EF90DF90CF90089595
:10046000823009F0ADCF9860ABCF10924801109266
:10047000490110924A0110924B0110924D011092C5
:100480004C011092470110923E0181E080933F01A0
:1004900008958091ED02882349F1809146018111F0
:1004A00025C081E0809346011092A7021092A60217
:1004B0001092A5028091D702809345018093440158
:1004C00021E030E0882311F030E020E03093430158
:1004D0002093420121E030E08F3F11F030E020E036
:1004E00030934101209340010C943502089585B169
:1004F000817090910201911104C092E0892B85B91D
:10050000089590E0FBCFCF938091E002C091E1028B
:10051000C095C093D80280950E94CF008C2F0E9476
:10052000CF008EE70E94CF001092CA05F8940E9477
:10053000770289E080938100E0E7F0E080818E7FA0
:1005400080838CEB94E0909389008093880078946A
:100550001092E302CF910895DC01FC01019000208C
:10056000E9F73197E81BF90B9D01281B390B2E1772
:100570003F0750F42D91222339F03091C00035FF10
:10058000FCCF2093C600E9CF08951F920F920FB6BB
:100590000F9211242F933F938F939F93AF93BF9309
:1005A0008091250790912607A0912707B0912807F1
:1005B0003091240723E0230F2D3758F50196A11D14
:1005C000B11D209324078093250790932607A093BD
:1005D0002707B09328078091290790912A07A091B7
:1005E0002B07B0912C070196A11DB11D80932907FF
:1005F00090932A07A0932B07B0932C07BF91AF913C
:100600009F918F913F912F910F900FBE0F901F9050
:10061000189526E8230F0296A11DB11DD2CF1F9277
:100620000F920FB60F9211242F933F934F935F9326
:100630008F939F93EF93FF932091C60080912007A3
:10064000909121070196843531E0930710F090E0F6
:1006500080E0409122075091230748175907E1F4A1
:100660008091EB029091EC02019649F08091EB02AF
:100670009091EC0201969093EC028093EB02FF9133
:10068000EF919F918F915F914F913F912F910F909B
:100690000FBE0F901F90189590932107809320070D
:1006A000E0912007F0912107E553FA4F2083E7CF2F
:1006B0001F920F920FB60F9211241092D90210922E
:1006C000B2000F900FBE0F901F9018951F920F92BF
:1006D0000FB60F9211246F927F928F929F92AF92DA
:1006E000BF92CF92DF92EF92FF920F931F932F93BF
:1006F0003F934F935F936F937F938F939F93AF93AA
:10070000BF93CF93DF93EF93FF938091CA05882324
:10071000C1F1E091E302EF5FEF70E093E302F0E0FC
:10072000ED5FFE4F808190910201992341F182603B
:1007300085B98091E20290E09093890080938800CF
:10074000FF91EF91DF91CF91BF91AF919F918F91E9
:100750007F916F915F914F913F912F911F910F91D9
:10076000FF90EF90DF90CF90BF90AF909F908F90D1
:100770007F906F900F900FBE0F901F9018958D7FF8
:10078000D7CF809179008093D7022091D502309104
:10079000D602280F311D3093D6022093D5029091B6
:1007A000D4029F5F9093D402903861F4220F232FDC
:1007B000221F330B2093D3021092D4021092D60240
:1007C0001092D5029091D302482F491B4093D20238
:1007D000242F042E000C330B90913F01992399F0A4
:1007E00037FF03C031952195310990914701921748
:1007F00010F42093470190913E019F5F943008F0E0
:1008000089C090933E019091ED029923F1F090916F
:1008100046019923D1F090914501891710F48093F6
:10082000450190914401981710F48093440181117F
:10083000A7C080914201909143018F3F980729F012
:10084000019690934301809342018091D1028F5F82
:10085000873009F4A6C08093D102E091D102F0E084
:10086000EE0FFF1FEF53FD4F8091CF029091D0020A
:1008700020813181821B930B2091C00242029001A2
:10088000112431832083820F931F9093D002809391
:10089000CF02843691050CF487C081E08093BA02C0
:1008A0008091B9028F5F893C08F085C08093B902BE
:1008B0008091B802882309F480C09091B902943BDA
:1008C00008F47BC08091ED02882319F080E00E943B
:1008D0009D011092B3021092B2021092B8021092CF
:1008E000AE021092AF021092B0021092B1021092BA
:1008F000AD021092B6021092AC021092B402289887
:100900000E9435028091ED02882309F419CF0E94DC
:10091000820116CF10923E0160914C0170914D0101
:100920006F3F760709F46FCF44028001112430E055
:1009300020E0C0904801D0904901E0904A01F09039
:100940004B014801590180949094A094B0948C1468
:100950009D04AE04BF0408F456CF0C0D1D1D2E1DC2
:100960003F1D009348011093490120934A013093A1
:100970004B016F5F7F4F70934D0160934C0143CFEC
:100980008F3F09F062CF80914001909141018F3FEC
:10099000980709F45ACF0196909341018093400142
:1009A00054CF1092D10259CF8D399F4F0CF078CF90
:1009B0001092BA0275CF88EC79CF1092B70290915D
:1009C000BF029093C0029091BE029093BF0290919B
:1009D000BD029093BE029091BC029093BD02909193
:1009E000BB029093BC024093BB02D091BA023091FB
:1009F000B502882309F476C08091B6029FEF980F64
:100A00009093B602D31759F0D093B5021092B90261
:100A100028EF280F2230A8F582508093B6028091EB
:100A2000B602811114C08BE08093B6028091AC02B3
:100A300091E0980F9093AC029091AB029D1739F022
:100A40008E5F8093B7021092AC02D093AB02E0911C
:100A5000B702EE2309F474CEE150E093B702E150FF
:100A6000E73008F065C1F0E0E65CFA4F8091AD0236
:100A70000C94370B0306D805E205430646064906E3
:100A80006E06923050F28A50823048F68091B4025D
:100A90008F5F8093B402863008F4C1CF8091ED025D
:100AA000882319F080E00E949D011092B4021092F8
:100AB000B3021092B2021092B8021092AE021092DB
:100AC000AF021092B0021092B1021092AD021092D9
:100AD000B6021092AC028091ED0281110E94820157
:100AE00028982ECE2091B902C22FCB3010F0CB50D7
:100AF000FCCFC093AA0295E0920F41E0480F9C30D2
:100B000018F09B50842FF9CF8093AC029093A902E8
:100B10008091ED02D3130AC0882309F411CE253B3E
:100B200008F40ECE80E00E949D01F1CE81110E945A
:100B30004902D093B5021092B902C4508091ED02DF
:100B4000C430D8F4882319F080E00E949D011092EF
:100B5000AE021092AF021092B0021092B102109247
:100B6000AD028091ED0281110E948201289880914E
:100B7000AC028F5F8093B7026ACF8823C1F3809164
:100B8000A8028F3F19F08F5F8093A802D091A8022E
:100B9000D33068F3C1E0C093A70281E00E94AE00A9
:100BA000D63028F3C093A60282E00E94AE00DFCFC9
:100BB00021E030E0A90102C0440F551F8A95E2F7F9
:100BC000CA0109C023E030E0F90102C0EE0FFF1FA7
:100BD0008A95E2F7CF01092E000CAA0BBB0B4091BE
:100BE000AE025091AF026091B0027091B102842BBD
:100BF000952BA62BB72B8093AE029093AF02A093B8
:100C0000B002B093B1028091AD029091B702890F0A
:100C10008093AD02C1E098E0B92ECC24CA94DC2CBC
:100C200032E0A32E4FE0742E8091AD02883008F49C
:100C300003C22091AE028091B8022E3709F0C3C1E1
:100C4000811198C08091ED02882331F00E94490201
:100C5000C093A702C093A602C093B80228980E942E
:100C600035028091BA028093AB021092B402709266
:100C7000B6021092AC028091ED028111C093A502E0
:100C8000B092A4028BC027E030E094CF2FE030E098
:100C90009BCF2FE130E0A90102C0440F551F8A9578
:100CA000E2F7CA01092E000CAA0BBB0B4091AE0261
:100CB0005091AF026091B0027091B102842B952BDC
:100CC000A62BB72B8093AE029093AF02A093B002F5
:100CD000B093B10285E08093B70295CF843090F451
:100CE0008EE790E0A0E0B0E08093AE029093AF0278
:100CF000A093B002B093B10288E08093AD0210924D
:100D0000B70281CF8091AE029091AF02A091B00264
:100D1000B091B1029927AA27BB279E678093AE02A4
:100D20009093AF02A093B002B093B10280E1E5CFFF
:100D30008091ED02882319F080E00E949D011092BD
:100D4000B3021092B2021092B8021092AE02109248
:100D5000AF021092B0021092B1021092AD02109246
:100D6000B70228988091ED02882309F44CCF0E94A5
:100D7000820149CF0091B2021091B3020A301105ED
:100D800068F5B092A4028091ED02882339F0809139
:100D9000A5028F3F19F08F5F8093A5022091A402D6
:100DA0008091AE029091AF02A091B002B091B102D9
:100DB000022E04C0B695A795979587950A94D2F709
:100DC0008093AE029093AF02A093B002B093B102B1
:100DD0008091AD02821B8093AD0226CF10924E010E
:100DE000D092E102C092E0028FE4882E81E0982E3A
:100DF000780152E0E51AF108C4018F5491408E1534
:100E00009F0568F4F40161904F01D8E0862D817050
:100E100090E00E94BB006694D150C1F7EDCF909155
:100E2000E0028091E102F701E15BFE4F90952081A5
:100E3000291307C0F801E25BFE4F80959081981757
:100E400039F18091ED02882319F082E00E949D0122
:100E50000E94350228988091E5029091E6028F3F2A
:100E6000980729F001969093E6028093E50280911D
:100E7000ED02882321F00E948201C093A502109206
:100E8000B3021092B2021092B4021092AC02F8CEE9
:100E90008091E7029091E8028F3F980729F0019630
:100EA0009093E8028093E7028091ED02882319F085
:100EB00081E00E949D010E9431010C9768F1209110
:100EC0004C0130914D01D0E010E02115310571F059
:100ED00050E040E0609148017091490180914A01E1
:100EE00090914B010E94150BD22F132F80EC0E9482
:100EF00053018EE00E94530181E00E9453018091D2
:100F000047010E948F01812F0E948F018D2F0E9427
:100F10008F0180EC0E9453010E94350228980FE453
:100F200011E08091B2029091B302029798012F5480
:100F3000314028173907E8F5F801D1918F018091E8
:100F40004E01813071F180F08230D1F0D03C19F443
:100F50008BED0E9453018D2F0E945301DB3D09F759
:100F60008DED0E945301DDCF80EC0E94530180E0A3
:100F70000E9453018D2F0E945301C0934E01D1CF87
:100F8000D03F39F480EF0E94530183E080934E01FB
:100F9000C8CF8DE00E9453018AE00E945301289837
:100FA00066CFD33099F683E00E945301A0924E01A0
:100FB000B8CF80EC0E9453018DE00E9453018AE07B
:100FC0000E94530154CF8130A1F58091B2029091DB
:100FD000B302FC01E15BFE4F208301969093B302C4
:100FE0008093B20285359140F8F08091ED0288231C
:100FF00019F080E00E949D011092B4021092B30299
:101000001092B2021092B8021092AE021092AF0289
:101010001092B0021092B1021092AD021092B6027C
:101020001092AC0228986ECC233009F029CE289A71
:1010300027CEC093A402B2CE789482CBCF93DF9315
:1010400000D000D0CDB7DEB7789484B5826084BD7F
:1010500084B5816084BD85B5826085BD85B58160BC
:1010600085BD80916E00816080936E00109281003A
:1010700080918100826080938100809181008160F5
:1010800080938100809180008160809380008091B6
:10109000B10084608093B1008091B0008160809342
:1010A000B00080917A00846080937A0080917A0009
:1010B000826080937A0080917A00816080937A00C8
:1010C00080917A00806880937A001092C10084B782
:1010D0008093E40214BE0FB6F894A8958091600046
:1010E000886180936000109260000FBE88E199E2F1
:1010F0000FB6F894A895809360000FBE909360009F
:10110000F8941092C50087E68093C4008091C000D7
:1011100082608093C0008091C10088618093C1008B
:101120008091C20086608093C2008091C100806877
:101130008093C10080E480937C0080917C00806279
:1011400080937C0094E090937A0080917A00806292
:1011500080937A0010927B0080917E008160809362
:101160007E0080917A00806880937A0080917A0076
:10117000806480937A001092800089E080938100DF
:10118000109282002CEB34E0309389002093880089
:1011900082E080936F001092B0009093B10081E0E4
:1011A00087BB8FE384B985B115B80E94780083E1CD
:1011B00091E00E94AC0285E391E00E94AC02789439
:1011C0000E9478005E0122E0A20EB11CCE010196C1
:1011D0009C838B83FF24F39480912D0790912E079D
:1011E000009711F481E397E0F501E81BF90B2091DA
:1011F000000130910101E217F30720F4F09301019F
:10120000E09300018BB1F4E08F278BB92FB7F894EE
:101210004091220750912307809120079091210748
:101220004817590709F446C0809122079091230777
:101230000196843531E0930710F090E080E09093C0
:1012400023078093220785539A4FFC01E08081E0B9
:101250002FBF882309F44BC08091F002803C09F035
:1012600035C1E1102AC01092E302F7E6F093E202E2
:10127000F894809170008160809370002AE0209340
:1012800081003DEC3093B200F092CA0578948FEF64
:101290009FEF9093E1028093E0021092DF021091A1
:1012A000DF02123378F48EE70E94CF001F5F1093A5
:1012B000DF02F5CF80E0E12CCBCF9BE0E9128DC0BF
:1012C000F092EF02E092F0022FB7F8948091250798
:1012D00090912607A0912707B09128072FBF8093F0
:1012E000C6059093C705A093C805B093C905809122
:1012F0000103882309F43FC14FB7F894809101039B
:10130000882309F437C1209000033090FF024090F9
:10131000FE025090FD026090FC027090FB02C090B3
:10132000F902D090FA028090F7029090F802209192
:10133000F5023091F6026091F1027091F202809113
:10134000F3029091F4024FBF10E000E02115310547
:1013500031F050E040E00E94150B122F032FEFB642
:10136000F894809101038823B1F10E9431018097A4
:1013700090F180EC0E94530180E10E94530181E0D2
:101380000E945301822D0E948F01832D0E948F01A4
:10139000842D0E948F01852D0E948F01862D0E9431
:1013A0008F01802F0E948F01812F0E948F018D2D30
:1013B0000E948F018C2D0E948F01892D0E948F0128
:1013C000882D0E948F01872D0E948F0180EC0E9442
:1013D000530110920103EFBECEC0EDE0EE1270C0DB
:1013E00000912D0710912E070115110511F401E34D
:1013F00017E0DFB6F8940E943101829708F45EC0CE
:101400002B813C81201B310B89018091000190913F
:1014100001012817390720F43093010120930001BE
:1014200080EC0E9453018DE00E94530182E00E94F3
:10143000530181E00E945301812F0E948F01802F70
:101440000E948F0110910001809101010E948F0183
:10145000812F0E948F018091EB029091EC02892FE5
:101460000E948F018091EB029091EC020E948F010B
:101470008091E9029091EA02892F0E948F01809168
:10148000E9029091EA020E948F011091E702809197
:10149000E8020E948F01812F0E948F011091E502C6
:1014A0008091E6020E948F01812F0E948F0180911E
:1014B000E4020E948F0180EC0E945301DFBE02CF44
:1014C0003FE0E312FFCEF092EE02FCCE9091EE02EE
:1014D0009923B1F08091CA0581110FC080ECE81604
:1014E00061F081E0E11001C080E080930201809111
:1014F000CA05811102C00E9477021092EE02E2CE6C
:101500009091EF029923A1F090ECE91671F081E03F
:10151000E11001C080E08093ED020E948201809181
:10152000ED02811102C0109201031092EF02CACEA7
:10153000E0ECEE1207C08091CA058130A1F40E9450
:101540008302C0CEFCEDEF1207C08B3D09F0BACE8E
:1015500080EC0E94CF00B6CE2DEDE21204C08B3D90
:1015600009F0B0CEF6CF8091CA05813009F0AACE3D
:101570008E2DEFCF4FBF8091CA058823F1F02FB792
:10158000F8948091250790912607A0912707B091A4
:1015900028072FBF4091C6055091C7056091C80527
:1015A0007091C905841B950BA60BB70B893E934020
:1015B000A105B10510F00E9483022FB7F894409165
:1015C000C4055091C5058091C2059091C305481787
:1015D0005907E9F08091C4059091C5050196803CBA
:1015E000E2E09E0710F090E080E09093C5058093C4
:1015F000C4058E5F9C4FFC01808191E02FBF992331
:1016000059F09091C00095FD05C0A895FACF90E0E3
:1016100080E0F4CF8093C600A89520E030E0232B33
:1016200009F4DACD0E940000D5CDA1E21A2EAA1B42
:10163000BB1BFD010DC0AA1FBB1FEE1FFF1FA21782
:10164000B307E407F50720F0A21BB30BE40BF50B7F
:10165000661F771F881F991F1A9469F76095709508
:10166000809590959B01AC01BD01CF010895EE0FCF
:0E167000FF1F0590F491E02D0994F894FFCF30
:10167E00FFFF013A162E1E3E1E2E16062A122202BB
:10168E0022122A41726475696E6F20544E43207681
:10169E002E302E31352E313220446961676E6F73D4
:0A16AE0074696373000A0A0A000061
:00000001FF
